{
  "contractName": "NoBatchingSystem",
  "abi": [
    {
      "inputs": [],
      "payable": false,
      "stateMutability": "nonpayable",
      "type": "constructor"
    },
    {
      "constant": false,
      "inputs": [
        {
          "internalType": "string",
          "name": "stock",
          "type": "string"
        }
      ],
      "name": "newStock",
      "outputs": [],
      "payable": false,
      "stateMutability": "nonpayable",
      "type": "function"
    },
    {
      "constant": false,
      "inputs": [
        {
          "internalType": "uint256",
          "name": "curr",
          "type": "uint256"
        }
      ],
      "name": "pushSell",
      "outputs": [],
      "payable": false,
      "stateMutability": "nonpayable",
      "type": "function"
    },
    {
      "constant": false,
      "inputs": [
        {
          "internalType": "uint256",
          "name": "curr",
          "type": "uint256"
        }
      ],
      "name": "pushBuy",
      "outputs": [],
      "payable": false,
      "stateMutability": "nonpayable",
      "type": "function"
    },
    {
      "constant": false,
      "inputs": [
        {
          "internalType": "string",
          "name": "stock",
          "type": "string"
        },
        {
          "internalType": "uint256",
          "name": "amount",
          "type": "uint256"
        },
        {
          "internalType": "uint256",
          "name": "price",
          "type": "uint256"
        }
      ],
      "name": "performSell",
      "outputs": [],
      "payable": false,
      "stateMutability": "nonpayable",
      "type": "function"
    },
    {
      "constant": false,
      "inputs": [
        {
          "internalType": "string",
          "name": "stock",
          "type": "string"
        },
        {
          "internalType": "uint256",
          "name": "amount",
          "type": "uint256"
        },
        {
          "internalType": "uint256",
          "name": "price",
          "type": "uint256"
        }
      ],
      "name": "performBuy",
      "outputs": [],
      "payable": false,
      "stateMutability": "nonpayable",
      "type": "function"
    },
    {
      "constant": false,
      "inputs": [
        {
          "internalType": "string",
          "name": "stock",
          "type": "string"
        },
        {
          "internalType": "uint256",
          "name": "amount",
          "type": "uint256"
        },
        {
          "internalType": "uint256",
          "name": "price",
          "type": "uint256"
        }
      ],
      "name": "sell",
      "outputs": [],
      "payable": false,
      "stateMutability": "nonpayable",
      "type": "function"
    },
    {
      "constant": false,
      "inputs": [
        {
          "internalType": "string",
          "name": "stock",
          "type": "string"
        },
        {
          "internalType": "uint256",
          "name": "amount",
          "type": "uint256"
        },
        {
          "internalType": "uint256",
          "name": "price",
          "type": "uint256"
        }
      ],
      "name": "buy",
      "outputs": [],
      "payable": false,
      "stateMutability": "nonpayable",
      "type": "function"
    },
    {
      "constant": false,
      "inputs": [
        {
          "internalType": "address",
          "name": "to",
          "type": "address"
        },
        {
          "internalType": "uint256",
          "name": "amount",
          "type": "uint256"
        }
      ],
      "name": "add_tokens",
      "outputs": [],
      "payable": false,
      "stateMutability": "nonpayable",
      "type": "function"
    },
    {
      "constant": false,
      "inputs": [
        {
          "internalType": "address",
          "name": "to",
          "type": "address"
        },
        {
          "internalType": "string",
          "name": "stock",
          "type": "string"
        },
        {
          "internalType": "uint256",
          "name": "amount",
          "type": "uint256"
        }
      ],
      "name": "add_stocks",
      "outputs": [],
      "payable": false,
      "stateMutability": "nonpayable",
      "type": "function"
    },
    {
      "constant": false,
      "inputs": [
        {
          "internalType": "string",
          "name": "name",
          "type": "string"
        }
      ],
      "name": "setUsername",
      "outputs": [],
      "payable": false,
      "stateMutability": "nonpayable",
      "type": "function"
    },
    {
      "constant": true,
      "inputs": [
        {
          "internalType": "address",
          "name": "account",
          "type": "address"
        }
      ],
      "name": "getUsername",
      "outputs": [
        {
          "internalType": "string",
          "name": "",
          "type": "string"
        }
      ],
      "payable": false,
      "stateMutability": "view",
      "type": "function"
    },
    {
      "constant": true,
      "inputs": [],
      "name": "getWalletsTokens",
      "outputs": [
        {
          "internalType": "uint256",
          "name": "",
          "type": "uint256"
        }
      ],
      "payable": false,
      "stateMutability": "view",
      "type": "function"
    },
    {
      "constant": true,
      "inputs": [
        {
          "internalType": "string",
          "name": "stock",
          "type": "string"
        }
      ],
      "name": "getWalletsStocks",
      "outputs": [
        {
          "internalType": "uint256",
          "name": "",
          "type": "uint256"
        }
      ],
      "payable": false,
      "stateMutability": "view",
      "type": "function"
    },
    {
      "constant": true,
      "inputs": [
        {
          "internalType": "uint256",
          "name": "k",
          "type": "uint256"
        }
      ],
      "name": "getWalletsHistory",
      "outputs": [
        {
          "components": [
            {
              "internalType": "address",
              "name": "source",
              "type": "address"
            },
            {
              "internalType": "address",
              "name": "destination",
              "type": "address"
            },
            {
              "internalType": "string",
              "name": "stock",
              "type": "string"
            },
            {
              "internalType": "uint256",
              "name": "amount",
              "type": "uint256"
            },
            {
              "internalType": "uint256",
              "name": "price",
              "type": "uint256"
            }
          ],
          "internalType": "struct info.Match[]",
          "name": "",
          "type": "tuple[]"
        }
      ],
      "payable": false,
      "stateMutability": "view",
      "type": "function"
    },
    {
      "constant": true,
      "inputs": [],
      "name": "getWalletsSellsInTransit",
      "outputs": [
        {
          "components": [
            {
              "internalType": "enum info.OrderType",
              "name": "ot",
              "type": "uint8"
            },
            {
              "internalType": "address",
              "name": "owner",
              "type": "address"
            },
            {
              "internalType": "string",
              "name": "stock",
              "type": "string"
            },
            {
              "internalType": "uint256",
              "name": "amount",
              "type": "uint256"
            },
            {
              "internalType": "uint256",
              "name": "price",
              "type": "uint256"
            }
          ],
          "internalType": "struct info.Order[]",
          "name": "",
          "type": "tuple[]"
        }
      ],
      "payable": false,
      "stateMutability": "view",
      "type": "function"
    },
    {
      "constant": true,
      "inputs": [],
      "name": "getWalletsBuysInTransit",
      "outputs": [
        {
          "components": [
            {
              "internalType": "enum info.OrderType",
              "name": "ot",
              "type": "uint8"
            },
            {
              "internalType": "address",
              "name": "owner",
              "type": "address"
            },
            {
              "internalType": "string",
              "name": "stock",
              "type": "string"
            },
            {
              "internalType": "uint256",
              "name": "amount",
              "type": "uint256"
            },
            {
              "internalType": "uint256",
              "name": "price",
              "type": "uint256"
            }
          ],
          "internalType": "struct info.Order[]",
          "name": "",
          "type": "tuple[]"
        }
      ],
      "payable": false,
      "stateMutability": "view",
      "type": "function"
    },
    {
      "constant": true,
      "inputs": [
        {
          "internalType": "string",
          "name": "stock",
          "type": "string"
        },
        {
          "internalType": "uint256",
          "name": "noPrices",
          "type": "uint256"
        }
      ],
      "name": "getSellsInOrderBook",
      "outputs": [
        {
          "components": [
            {
              "internalType": "enum info.OrderType",
              "name": "ot",
              "type": "uint8"
            },
            {
              "internalType": "address",
              "name": "owner",
              "type": "address"
            },
            {
              "internalType": "string",
              "name": "stock",
              "type": "string"
            },
            {
              "internalType": "uint256",
              "name": "amount",
              "type": "uint256"
            },
            {
              "internalType": "uint256",
              "name": "price",
              "type": "uint256"
            }
          ],
          "internalType": "struct info.Order[]",
          "name": "",
          "type": "tuple[]"
        }
      ],
      "payable": false,
      "stateMutability": "view",
      "type": "function"
    },
    {
      "constant": true,
      "inputs": [
        {
          "internalType": "string",
          "name": "stock",
          "type": "string"
        },
        {
          "internalType": "uint256",
          "name": "noPrices",
          "type": "uint256"
        }
      ],
      "name": "getBuysInOrderBook",
      "outputs": [
        {
          "components": [
            {
              "internalType": "enum info.OrderType",
              "name": "ot",
              "type": "uint8"
            },
            {
              "internalType": "address",
              "name": "owner",
              "type": "address"
            },
            {
              "internalType": "string",
              "name": "stock",
              "type": "string"
            },
            {
              "internalType": "uint256",
              "name": "amount",
              "type": "uint256"
            },
            {
              "internalType": "uint256",
              "name": "price",
              "type": "uint256"
            }
          ],
          "internalType": "struct info.Order[]",
          "name": "",
          "type": "tuple[]"
        }
      ],
      "payable": false,
      "stateMutability": "view",
      "type": "function"
    },
    {
      "constant": true,
      "inputs": [],
      "name": "getStocks",
      "outputs": [
        {
          "internalType": "string[]",
          "name": "",
          "type": "string[]"
        }
      ],
      "payable": false,
      "stateMutability": "view",
      "type": "function"
    },
    {
      "constant": true,
      "inputs": [
        {
          "internalType": "string",
          "name": "stock",
          "type": "string"
        }
      ],
      "name": "getSellPrices",
      "outputs": [
        {
          "internalType": "uint256[]",
          "name": "",
          "type": "uint256[]"
        }
      ],
      "payable": false,
      "stateMutability": "view",
      "type": "function"
    }
  ],
  "bytecode": "0x60806040523480156200001157600080fd5b50336000806101000a81548173ffffffffffffffffffffffffffffffffffffffff021916908373ffffffffffffffffffffffffffffffffffffffff1602179055506000600b81905550600160026040516200006c90620000b3565b908152602001604051809103902060006101000a81548160ff021916908315150217905550620000d5565b6000620000a6600083620000ca565b9150600082019050919050565b6000620000c08262000097565b9150819050919050565b600081905092915050565b614e8480620000e56000396000f3fe608060405234801561001057600080fd5b506004361061012c5760003560e01c806397e312d2116100ad578063ce43c03211610071578063ce43c0321461032b578063d1fe958d1461035b578063d2c9dbf21461038b578063ed59313a146103a9578063fc28405d146103c55761012c565b806397e312d2146102875780639b0a5e67146102a5578063a5cd0ea8146102c1578063b556861a146102df578063bf8d3271146102fb5761012c565b80633d04c571116100f45780633d04c571146101d35780636a8ba7cd146101ef57806372873bf41461020b578063852087ca1461023b5780639087ec0a146102575761012c565b806304804ee8146101315780631456ab1f1461014d57806321533ab51461017d5780632cc4f6661461019b5780632e99d557146101b7575b600080fd5b61014b60048036036101469190810190614450565b6103e1565b005b610167600480360361016291908101906144b7565b610507565b6040516101749190614a9a565b60405180910390f35b610185610b1f565b6040516101929190614a78565b60405180910390f35b6101b560048036036101b091908101906144b7565b610c08565b005b6101d160048036036101cc91908101906144b7565b6110c2565b005b6101ed60048036036101e89190810190614318565b61157c565b005b610209600480360361020491908101906143bb565b611685565b005b610225600480360361022091908101906143bb565b611735565b6040516102329190614ba2565b60405180910390f35b61025560048036036102509190810190614450565b61179d565b005b610271600480360361026c91908101906143fc565b612297565b60405161027e9190614abc565b60405180910390f35b61028f612450565b60405161029c9190614abc565b60405180910390f35b6102bf60048036036102ba9190810190614450565b612830565b005b6102c9612922565b6040516102d69190614abc565b60405180910390f35b6102f960048036036102f4919081019061437f565b612d02565b005b610315600480360361031091908101906143bb565b612de5565b6040516103229190614ade565b60405180910390f35b610345600480360361034091908101906142ef565b612ef6565b6040516103529190614b00565b60405180910390f35b610375600480360361037091908101906143fc565b6130fd565b6040516103829190614abc565b60405180910390f35b6103936132b6565b6040516103a09190614ba2565b60405180910390f35b6103c360048036036103be91908101906143bb565b613300565b005b6103df60048036036103da9190810190614450565b61352b565b005b81600c60003373ffffffffffffffffffffffffffffffffffffffff1673ffffffffffffffffffffffffffffffffffffffff168152602001908152602001600020600101846040516104329190614a4a565b9081526020016040518091039020541015610482576040517f08c379a000000000000000000000000000000000000000000000000000000000815260040161047990614b62565b60405180910390fd5b61048b83611685565b81600c60003373ffffffffffffffffffffffffffffffffffffffff1673ffffffffffffffffffffffffffffffffffffffff168152602001908152602001600020600101846040516104dc9190614a4a565b90815260200160405180910390206000828254039250508190555061050283838361179d565b505050565b60606000600c60003373ffffffffffffffffffffffffffffffffffffffff1673ffffffffffffffffffffffffffffffffffffffff168152602001908152602001600020600601805490509050600080841461057057818410610569578161056b565b835b610572565b815b90506060816040519080825280602002602001820160405280156105b057816020015b61059d614022565b8152602001906001900390816105955790505b50905060008090505b8281101561091a57610648600c60003373ffffffffffffffffffffffffffffffffffffffff1673ffffffffffffffffffffffffffffffffffffffff168152602001908152602001600020600601828154811061061157fe5b906000526020600020906005020160000160009054906101000a900473ffffffffffffffffffffffffffffffffffffffff16612ef6565b82828151811061065457fe5b6020026020010151600001819052506106ea600c60003373ffffffffffffffffffffffffffffffffffffffff1673ffffffffffffffffffffffffffffffffffffffff16815260200190815260200160002060060182815481106106b357fe5b906000526020600020906005020160010160009054906101000a900473ffffffffffffffffffffffffffffffffffffffff16612ef6565b8282815181106106f657fe5b602002602001015160200181905250600c60003373ffffffffffffffffffffffffffffffffffffffff1673ffffffffffffffffffffffffffffffffffffffff168152602001908152602001600020600601818154811061075257fe5b90600052602060002090600502016002018054600181600116156101000203166002900480601f0160208091040260200160405190810160405280929190818152602001828054600181600116156101000203166002900480156107f75780601f106107cc576101008083540402835291602001916107f7565b820191906000526020600020905b8154815290600101906020018083116107da57829003601f168201915b505050505082828151811061080857fe5b602002602001015160400181905250600c60003373ffffffffffffffffffffffffffffffffffffffff1673ffffffffffffffffffffffffffffffffffffffff168152602001908152602001600020600601818154811061086457fe5b90600052602060002090600502016003015482828151811061088257fe5b60200260200101516060018181525050600c60003373ffffffffffffffffffffffffffffffffffffffff1673ffffffffffffffffffffffffffffffffffffffff16815260200190815260200160002060060181815481106108df57fe5b9060005260206000209060050201600401548282815181106108fd57fe5b6020026020010151608001818152505080806001019150506105b9565b50600c60003373ffffffffffffffffffffffffffffffffffffffff1673ffffffffffffffffffffffffffffffffffffffff168152602001908152602001600020600601805480602002602001604051908101604052809291908181526020016000905b82821015610b1157838290600052602060002090600502016040518060a00160405290816000820160009054906101000a900473ffffffffffffffffffffffffffffffffffffffff1673ffffffffffffffffffffffffffffffffffffffff1673ffffffffffffffffffffffffffffffffffffffff1681526020016001820160009054906101000a900473ffffffffffffffffffffffffffffffffffffffff1673ffffffffffffffffffffffffffffffffffffffff1673ffffffffffffffffffffffffffffffffffffffff168152602001600282018054600181600116156101000203166002900480601f016020809104026020016040519081016040528092919081815260200182805460018160011615610100020316600290048015610ae55780601f10610aba57610100808354040283529160200191610ae5565b820191906000526020600020905b815481529060010190602001808311610ac857829003601f168201915b50505050508152602001600382015481526020016004820154815250508152602001906001019061097d565b505050509350505050919050565b60606003805480602002602001604051908101604052809291908181526020016000905b82821015610bff578382906000526020600020018054600181600116156101000203166002900480601f016020809104026020016040519081016040528092919081815260200182805460018160011615610100020316600290048015610beb5780601f10610bc057610100808354040283529160200191610beb565b820191906000526020600020905b815481529060010190602001808311610bce57829003601f168201915b505050505081526020019060010190610b43565b50505050905090565b6060600960008381526020019081526020016000206001018054600181600116156101000203166002900480601f016020809104026020016040519081016040528092919081815260200182805460018160011615610100020316600290048015610cb45780601f10610c8957610100808354040283529160200191610cb4565b820191906000526020600020905b815481529060010190602001808311610c9757829003601f168201915b5050505050905060006009600084815260200190815260200160002060030154905060006009600085815260200190815260200160002060020154905080600584604051610d029190614a4a565b9081526020016040518091039020600084815260200190815260200160002060020160008282540192505081905550600583604051610d419190614a4a565b9081526020016040518091039020600083815260200190815260200160002060010154600584604051610d749190614a4a565b908152602001604051809103902060008481526020019081526020016000206000015412610fd4576001600684604051610dae9190614a4a565b90815260200160405180910390206000016000828254039250508190555081600684604051610ddd9190614a4a565b90815260200160405180910390206003016000600686604051610e009190614a4a565b9081526020016040518091039020600001548152602001908152602001600020819055506000600684604051610e369190614a4a565b90815260200160405180910390206000015490505b600684604051610e5b9190614a4a565b90815260200160405180910390206001015460018201128015610ee45750600684604051610e899190614a4a565b9081526020016040518091039020600301600060018301815260200190815260200160002054600685604051610ebf9190614a4a565b9081526020016040518091039020600301600083815260200190815260200160002054115b15610fd2576000600685604051610efb9190614a4a565b90815260200160405180910390206003016000838152602001908152602001600020549050600685604051610f309190614a4a565b9081526020016040518091039020600301600060018401815260200190815260200160002054600686604051610f669190614a4a565b908152602001604051809103902060030160008481526020019081526020016000208190555080600686604051610f9d9190614a4a565b908152602001604051809103902060030160006001850181526020019081526020016000208190555060018201915050610e4b565b505b6001600a600086815260200190815260200160002060006101000a81548160ff021916908315150217905550836005846040516110119190614a4a565b9081526020016040518091039020600084815260200190815260200160002060030160006005866040516110459190614a4a565b908152602001604051809103902060008681526020019081526020016000206001015481526020019081526020016000208190555060058360405161108a9190614a4a565b908152602001604051809103902060008381526020019081526020016000206001016000815480929190600101919050555050505050565b6060600960008381526020019081526020016000206001018054600181600116156101000203166002900480601f01602080910402602001604051908101604052809291908181526020018280546001816001161561010002031660029004801561116e5780601f106111435761010080835404028352916020019161116e565b820191906000526020600020905b81548152906001019060200180831161115157829003601f168201915b50505050509050600060096000848152602001908152602001600020600301549050600060096000858152602001908152602001600020600201549050806007846040516111bc9190614a4a565b90815260200160405180910390206000848152602001908152602001600020600201600082825401925050819055506007836040516111fb9190614a4a565b908152602001604051809103902060008381526020019081526020016000206001015460078460405161122e9190614a4a565b90815260200160405180910390206000848152602001908152602001600020600001541261148e5760016008846040516112689190614a4a565b908152602001604051809103902060000160008282540392505081905550816008846040516112979190614a4a565b908152602001604051809103902060030160006008866040516112ba9190614a4a565b90815260200160405180910390206000015481526020019081526020016000208190555060006008846040516112f09190614a4a565b90815260200160405180910390206000015490505b6008846040516113159190614a4a565b9081526020016040518091039020600101546001820112801561139e57506008846040516113439190614a4a565b90815260200160405180910390206003016000600183018152602001908152602001600020546008856040516113799190614a4a565b9081526020016040518091039020600301600083815260200190815260200160002054105b1561148c5760006008856040516113b59190614a4a565b908152602001604051809103902060030160008381526020019081526020016000205490506008856040516113ea9190614a4a565b90815260200160405180910390206003016000600184018152602001908152602001600020546008866040516114209190614a4a565b9081526020016040518091039020600301600084815260200190815260200160002081905550806008866040516114579190614a4a565b908152602001604051809103902060030160006001850181526020019081526020016000208190555060018201915050611305565b505b6001600a600086815260200190815260200160002060006101000a81548160ff021916908315150217905550836007846040516114cb9190614a4a565b9081526020016040518091039020600084815260200190815260200160002060030160006007866040516114ff9190614a4a565b90815260200160405180910390206000868152602001908152602001600020600101548152602001908152602001600020819055506007836040516115449190614a4a565b908152602001604051809103902060008381526020019081526020016000206001016000815480929190600101919050555050505050565b6000809054906101000a900473ffffffffffffffffffffffffffffffffffffffff1673ffffffffffffffffffffffffffffffffffffffff163373ffffffffffffffffffffffffffffffffffffffff161461160b576040517f08c379a000000000000000000000000000000000000000000000000000000000815260040161160290614b22565b60405180910390fd5b61161482611685565b80600c60008573ffffffffffffffffffffffffffffffffffffffff1673ffffffffffffffffffffffffffffffffffffffff168152602001908152602001600020600101836040516116659190614a4a565b908152602001604051809103902060008282540192505081905550505050565b6004816040516116959190614a4a565b908152602001604051809103902060009054906101000a900460ff16156116bb57611732565b60016004826040516116cd9190614a4a565b908152602001604051809103902060006101000a81548160ff021916908315150217905550600381908060018154018082558091505090600182039060005260206000200160009091929091909150908051906020019061172f929190614051565b50505b50565b6000600c60003373ffffffffffffffffffffffffffffffffffffffff1673ffffffffffffffffffffffffffffffffffffffff168152602001908152602001600020600101826040516117879190614a4a565b9081526020016040518091039020549050919050565b60003390506001600b600082825401925050819055505b60008311801561180557506008846040516117cf9190614a4a565b9081526020016040518091039020600101546008856040516117f19190614a4a565b908152602001604051809103902060000154125b1561207457600060088560405161181c9190614a4a565b9081526020016040518091039020600301600060088760405161183f9190614a4a565b9081526020016040518091039020600001548152602001908152602001600020549050828110156118705750612074565b5b6000841180156118e4575060078560405161188c9190614a4a565b90815260200160405180910390206000828152602001908152602001600020600101546007866040516118bf9190614a4a565b9081526020016040518091039020600083815260200190815260200160002060000154125b15611fd25760006007866040516118fb9190614a4a565b90815260200160405180910390206000838152602001908152602001600020600301600060078860405161192f9190614a4a565b9081526020016040518091039020600085815260200190815260200160002060000154815260200190815260200160002054905061196b6140d1565b600960008381526020019081526020016000206040518060a00160405290816000820160009054906101000a900460ff1660018111156119a757fe5b60018111156119b257fe5b81526020016000820160019054906101000a900473ffffffffffffffffffffffffffffffffffffffff1673ffffffffffffffffffffffffffffffffffffffff1673ffffffffffffffffffffffffffffffffffffffff168152602001600182018054600181600116156101000203166002900480601f016020809104026020016040519081016040528092919081815260200182805460018160011615610100020316600290048015611aa55780601f10611a7a57610100808354040283529160200191611aa5565b820191906000526020600020905b815481529060010190602001808311611a8857829003601f168201915b50505050508152602001600282015481526020016003820154815250509050600081602001519050600060028360800151880181611adf57fe5b049050600083606001518910611af9578360600151611afb565b885b90508060078b604051611b0e9190614a4a565b90815260200160405180910390206000888152602001908152602001600020600201600082825403925050819055508060096000878152602001908152602001600020600201600082825403925050819055508089039850808202600c60008973ffffffffffffffffffffffffffffffffffffffff1673ffffffffffffffffffffffffffffffffffffffff16815260200190815260200160002060000160008282540192505081905550808285608001510302600c60008573ffffffffffffffffffffffffffffffffffffffff1673ffffffffffffffffffffffffffffffffffffffff1681526020019081526020016000206000016000828254019250508190555080600c60008573ffffffffffffffffffffffffffffffffffffffff1673ffffffffffffffffffffffffffffffffffffffff1681526020019081526020016000206001018b604051611c619190614a4a565b908152602001604051809103902060008282540192505081905550611c84614121565b6040518060a001604052808973ffffffffffffffffffffffffffffffffffffffff1681526020018573ffffffffffffffffffffffffffffffffffffffff1681526020018c8152602001838152602001848152509050600c60008973ffffffffffffffffffffffffffffffffffffffff1673ffffffffffffffffffffffffffffffffffffffff168152602001908152602001600020600601819080600181540180825580915050906001820390600052602060002090600502016000909192909190915060008201518160000160006101000a81548173ffffffffffffffffffffffffffffffffffffffff021916908373ffffffffffffffffffffffffffffffffffffffff16021790555060208201518160010160006101000a81548173ffffffffffffffffffffffffffffffffffffffff021916908373ffffffffffffffffffffffffffffffffffffffff1602179055506040820151816002019080519060200190611df192919061417c565b506060820151816003015560808201518160040155505050600c60008573ffffffffffffffffffffffffffffffffffffffff1673ffffffffffffffffffffffffffffffffffffffff168152602001908152602001600020600601819080600181540180825580915050906001820390600052602060002090600502016000909192909190915060008201518160000160006101000a81548173ffffffffffffffffffffffffffffffffffffffff021916908373ffffffffffffffffffffffffffffffffffffffff16021790555060208201518160010160006101000a81548173ffffffffffffffffffffffffffffffffffffffff021916908373ffffffffffffffffffffffffffffffffffffffff1602179055506040820151816002019080519060200190611f2192919061417c565b506060820151816003015560808201518160040155505050600060096000888152602001908152602001600020600201541415611fc7576000600a600088815260200190815260200160002060006101000a81548160ff02191690831515021790555060078b604051611f949190614a4a565b90815260200160405180910390206000888152602001908152602001600020600001600081548092919060010191905055505b505050505050611871565b600785604051611fe29190614a4a565b90815260200160405180910390206000828152602001908152602001600020600101546007866040516120159190614a4a565b90815260200160405180910390206000838152602001908152602001600020600001541261206e57600160088660405161204f9190614a4a565b9081526020016040518091039020600001600082825401925050819055505b506117b4565b6000831115612290576120856140d1565b6040518060a0016040528060018081111561209c57fe5b81526020018373ffffffffffffffffffffffffffffffffffffffff1681526020018681526020018581526020018481525090508060096000600b54815260200190815260200160002060008201518160000160006101000a81548160ff0219169083600181111561210957fe5b021790555060208201518160000160016101000a81548173ffffffffffffffffffffffffffffffffffffffff021916908373ffffffffffffffffffffffffffffffffffffffff160217905550604082015181600101908051906020019061217192919061417c565b506060820151816002015560808201518160030155905050612194600b54610c08565b600b54600c60008473ffffffffffffffffffffffffffffffffffffffff1673ffffffffffffffffffffffffffffffffffffffff1681526020019081526020016000206002016001016000600c60008673ffffffffffffffffffffffffffffffffffffffff1673ffffffffffffffffffffffffffffffffffffffff168152602001908152602001600020600201600001548152602001908152602001600020819055506001600c60008473ffffffffffffffffffffffffffffffffffffffff1673ffffffffffffffffffffffffffffffffffffffff1681526020019081526020016000206002016000016000828254019250508190555050612291565b5b50505050565b606060006008846040516122ab9190614a4a565b9081526020016040518091039020600001546008856040516122cd9190614a4a565b90815260200160405180910390206001015403905060008184106122f157816122f3565b835b905060608160405190808252806020026020018201604052801561233157816020015b61231e6141fc565b8152602001906001900390816123165790505b50905060008090505b82811015612443576008876040516123529190614a4a565b908152602001604051809103902060030160008260088a6040516123769190614a4a565b908152602001604051809103902060000154018152602001908152602001600020548282815181106123a457fe5b602002602001015160800181815250506007876040516123c49190614a4a565b908152602001604051809103902060008383815181106123e057fe5b60200260200101516080015181526020019081526020016000206002015482828151811061240a57fe5b602002602001015160600181815250508682828151811061242757fe5b602002602001015160400181905250808060010191505061233a565b5080935050505092915050565b6060600080905060008090505b600c60003373ffffffffffffffffffffffffffffffffffffffff1673ffffffffffffffffffffffffffffffffffffffff1681526020019081526020016000206002016000015481101561253a57600a6000600c60003373ffffffffffffffffffffffffffffffffffffffff1673ffffffffffffffffffffffffffffffffffffffff168152602001908152602001600020600201600101600084815260200190815260200160002054815260200190815260200160002060009054906101000a900460ff161561252d576001820191505b808060010191505061245d565b5060608160405190808252806020026020018201604052801561257757816020015b6125646141fc565b81526020019060019003908161255c5790505b509050600080905060008090505b600c60003373ffffffffffffffffffffffffffffffffffffffff1673ffffffffffffffffffffffffffffffffffffffff1681526020019081526020016000206002016000015481101561282657600a6000600c60003373ffffffffffffffffffffffffffffffffffffffff1673ffffffffffffffffffffffffffffffffffffffff168152602001908152602001600020600201600101600084815260200190815260200160002054815260200190815260200160002060009054906101000a900460ff16156128195760096000600c60003373ffffffffffffffffffffffffffffffffffffffff1673ffffffffffffffffffffffffffffffffffffffff16815260200190815260200160002060020160010160008481526020019081526020016000205481526020019081526020016000206040518060a00160405290816000820160009054906101000a900460ff1660018111156126e057fe5b60018111156126eb57fe5b81526020016000820160019054906101000a900473ffffffffffffffffffffffffffffffffffffffff1673ffffffffffffffffffffffffffffffffffffffff1673ffffffffffffffffffffffffffffffffffffffff168152602001600182018054600181600116156101000203166002900480601f0160208091040260200160405190810160405280929190818152602001828054600181600116156101000203166002900480156127de5780601f106127b3576101008083540402835291602001916127de565b820191906000526020600020905b8154815290600101906020018083116127c157829003601f168201915b505050505081526020016002820154815260200160038201548152505083838151811061280757fe5b60200260200101819052506001820191505b8080600101915050612585565b5081935050505090565b808202600c60003373ffffffffffffffffffffffffffffffffffffffff1673ffffffffffffffffffffffffffffffffffffffff1681526020019081526020016000206000015410156128b7576040517f08c379a00000000000000000000000000000000000000000000000000000000081526004016128ae90614b82565b60405180910390fd5b6128c083611685565b808202600c60003373ffffffffffffffffffffffffffffffffffffffff1673ffffffffffffffffffffffffffffffffffffffff1681526020019081526020016000206000016000828254039250508190555061291d83838361352b565b505050565b6060600080905060008090505b600c60003373ffffffffffffffffffffffffffffffffffffffff1673ffffffffffffffffffffffffffffffffffffffff16815260200190815260200160002060040160000154811015612a0c57600a6000600c60003373ffffffffffffffffffffffffffffffffffffffff1673ffffffffffffffffffffffffffffffffffffffff168152602001908152602001600020600401600101600084815260200190815260200160002054815260200190815260200160002060009054906101000a900460ff16156129ff576001820191505b808060010191505061292f565b50606081604051908082528060200260200182016040528015612a4957816020015b612a366141fc565b815260200190600190039081612a2e5790505b509050600080905060008090505b600c60003373ffffffffffffffffffffffffffffffffffffffff1673ffffffffffffffffffffffffffffffffffffffff16815260200190815260200160002060040160000154811015612cf857600a6000600c60003373ffffffffffffffffffffffffffffffffffffffff1673ffffffffffffffffffffffffffffffffffffffff168152602001908152602001600020600401600101600084815260200190815260200160002054815260200190815260200160002060009054906101000a900460ff1615612ceb5760096000600c60003373ffffffffffffffffffffffffffffffffffffffff1673ffffffffffffffffffffffffffffffffffffffff16815260200190815260200160002060040160010160008481526020019081526020016000205481526020019081526020016000206040518060a00160405290816000820160009054906101000a900460ff166001811115612bb257fe5b6001811115612bbd57fe5b81526020016000820160019054906101000a900473ffffffffffffffffffffffffffffffffffffffff1673ffffffffffffffffffffffffffffffffffffffff1673ffffffffffffffffffffffffffffffffffffffff168152602001600182018054600181600116156101000203166002900480601f016020809104026020016040519081016040528092919081815260200182805460018160011615610100020316600290048015612cb05780601f10612c8557610100808354040283529160200191612cb0565b820191906000526020600020905b815481529060010190602001808311612c9357829003601f168201915b5050505050815260200160028201548152602001600382015481525050838381518110612cd957fe5b60200260200101819052506001820191505b8080600101915050612a57565b5081935050505090565b6000809054906101000a900473ffffffffffffffffffffffffffffffffffffffff1673ffffffffffffffffffffffffffffffffffffffff163373ffffffffffffffffffffffffffffffffffffffff1614612d91576040517f08c379a0000000000000000000000000000000000000000000000000000000008152600401612d8890614b22565b60405180910390fd5b80600c60008473ffffffffffffffffffffffffffffffffffffffff1673ffffffffffffffffffffffffffffffffffffffff168152602001908152602001600020600001600082825401925050819055505050565b60606000600683604051612df99190614a4a565b908152602001604051809103902060000154600684604051612e1b9190614a4a565b908152602001604051809103902060010154039050606081604051908082528060200260200182016040528015612e615781602001602082028038833980820191505090505b50905060008090505b82811015612eeb57600685604051612e829190614a4a565b9081526020016040518091039020600301600082600688604051612ea69190614a4a565b90815260200160405180910390206000015401815260200190815260200160002054828281518110612ed457fe5b602002602001018181525050806001019050612e6a565b508092505050919050565b60606000809054906101000a900473ffffffffffffffffffffffffffffffffffffffff1673ffffffffffffffffffffffffffffffffffffffff168273ffffffffffffffffffffffffffffffffffffffff161415612f8a576040518060400160405280600481526020017f42616e6b0000000000000000000000000000000000000000000000000000000081525090506130f8565b600160008373ffffffffffffffffffffffffffffffffffffffff1673ffffffffffffffffffffffffffffffffffffffff16815260200190815260200160002060000160009054906101000a900460ff16613019576040518060400160405280600981526020017f556e646566696e656400000000000000000000000000000000000000000000008152506130f5565b600160008373ffffffffffffffffffffffffffffffffffffffff1673ffffffffffffffffffffffffffffffffffffffff1681526020019081526020016000206001018054600181600116156101000203166002900480601f0160208091040260200160405190810160405280929190818152602001828054600181600116156101000203166002900480156130ef5780601f106130c4576101008083540402835291602001916130ef565b820191906000526020600020905b8154815290600101906020018083116130d257829003601f168201915b50505050505b90505b919050565b606060006006846040516131119190614a4a565b9081526020016040518091039020600001546006856040516131339190614a4a565b90815260200160405180910390206001015403905060008184106131575781613159565b835b905060608160405190808252806020026020018201604052801561319757816020015b6131846141fc565b81526020019060019003908161317c5790505b50905060008090505b828110156132a9576006876040516131b89190614a4a565b908152602001604051809103902060030160008260068a6040516131dc9190614a4a565b9081526020016040518091039020600001540181526020019081526020016000205482828151811061320a57fe5b6020026020010151608001818152505060058760405161322a9190614a4a565b9081526020016040518091039020600083838151811061324657fe5b60200260200101516080015181526020019081526020016000206002015482828151811061327057fe5b602002602001015160600181815250508682828151811061328d57fe5b60200260200101516040018190525080806001019150506131a0565b5080935050505092915050565b6000600c60003373ffffffffffffffffffffffffffffffffffffffff1673ffffffffffffffffffffffffffffffffffffffff16815260200190815260200160002060000154905090565b600015156002826040516133149190614a4a565b908152602001604051809103902060009054906101000a900460ff16151514613372576040517f08c379a000000000000000000000000000000000000000000000000000000000815260040161336990614b42565b60405180910390fd5b600160003373ffffffffffffffffffffffffffffffffffffffff1673ffffffffffffffffffffffffffffffffffffffff16815260200190815260200160002060000160009054906101000a900460ff16156134405760006002600160003373ffffffffffffffffffffffffffffffffffffffff1673ffffffffffffffffffffffffffffffffffffffff16815260200190815260200160002060010160405161341a9190614a61565b908152602001604051809103902060006101000a81548160ff0219169083151502179055505b60016002826040516134529190614a4a565b908152602001604051809103902060006101000a81548160ff02191690831515021790555080600160003373ffffffffffffffffffffffffffffffffffffffff1673ffffffffffffffffffffffffffffffffffffffff16815260200190815260200160002060010190805190602001906134cd929190614051565b5060018060003373ffffffffffffffffffffffffffffffffffffffff1673ffffffffffffffffffffffffffffffffffffffff16815260200190815260200160002060000160006101000a81548160ff02191690831515021790555050565b60003390506001600b600082825401925050819055505b600083118015613593575060068460405161355d9190614a4a565b90815260200160405180910390206001015460068560405161357f9190614a4a565b908152602001604051809103902060000154125b15613dfe5760006006856040516135aa9190614a4a565b908152602001604051809103902060030160006006876040516135cd9190614a4a565b9081526020016040518091039020600001548152602001908152602001600020549050808310156135fe5750613dfe565b5b600084118015613672575060058560405161361a9190614a4a565b908152602001604051809103902060008281526020019081526020016000206001015460058660405161364d9190614a4a565b9081526020016040518091039020600083815260200190815260200160002060000154125b15613d5c5760006005866040516136899190614a4a565b9081526020016040518091039020600083815260200190815260200160002060030160006005886040516136bd9190614a4a565b908152602001604051809103902060008581526020019081526020016000206000015481526020019081526020016000205490506136f96140d1565b600960008381526020019081526020016000206040518060a00160405290816000820160009054906101000a900460ff16600181111561373557fe5b600181111561374057fe5b81526020016000820160019054906101000a900473ffffffffffffffffffffffffffffffffffffffff1673ffffffffffffffffffffffffffffffffffffffff1673ffffffffffffffffffffffffffffffffffffffff168152602001600182018054600181600116156101000203166002900480601f0160208091040260200160405190810160405280929190818152602001828054600181600116156101000203166002900480156138335780601f1061380857610100808354040283529160200191613833565b820191906000526020600020905b81548152906001019060200180831161381657829003601f168201915b5050505050815260200160028201548152602001600382015481525050905060008160200151905060006002878460800151018161386d57fe5b049050600083606001518910613887578360600151613889565b885b90508060058b60405161389c9190614a4a565b90815260200160405180910390206000888152602001908152602001600020600201600082825403925050819055508060096000878152602001908152602001600020600201600082825403925050819055508089039850808202600c60008573ffffffffffffffffffffffffffffffffffffffff1673ffffffffffffffffffffffffffffffffffffffff168152602001908152602001600020600001600082825401925050819055508082890302600c60008973ffffffffffffffffffffffffffffffffffffffff1673ffffffffffffffffffffffffffffffffffffffff1681526020019081526020016000206000016000828254019250508190555080600c60008973ffffffffffffffffffffffffffffffffffffffff1673ffffffffffffffffffffffffffffffffffffffff1681526020019081526020016000206001018b6040516139eb9190614a4a565b908152602001604051809103902060008282540192505081905550613a0e614121565b6040518060a001604052808573ffffffffffffffffffffffffffffffffffffffff1681526020018973ffffffffffffffffffffffffffffffffffffffff1681526020018c8152602001838152602001848152509050600c60008573ffffffffffffffffffffffffffffffffffffffff1673ffffffffffffffffffffffffffffffffffffffff168152602001908152602001600020600601819080600181540180825580915050906001820390600052602060002090600502016000909192909190915060008201518160000160006101000a81548173ffffffffffffffffffffffffffffffffffffffff021916908373ffffffffffffffffffffffffffffffffffffffff16021790555060208201518160010160006101000a81548173ffffffffffffffffffffffffffffffffffffffff021916908373ffffffffffffffffffffffffffffffffffffffff1602179055506040820151816002019080519060200190613b7b92919061417c565b506060820151816003015560808201518160040155505050600c60008973ffffffffffffffffffffffffffffffffffffffff1673ffffffffffffffffffffffffffffffffffffffff168152602001908152602001600020600601819080600181540180825580915050906001820390600052602060002090600502016000909192909190915060008201518160000160006101000a81548173ffffffffffffffffffffffffffffffffffffffff021916908373ffffffffffffffffffffffffffffffffffffffff16021790555060208201518160010160006101000a81548173ffffffffffffffffffffffffffffffffffffffff021916908373ffffffffffffffffffffffffffffffffffffffff1602179055506040820151816002019080519060200190613cab92919061417c565b506060820151816003015560808201518160040155505050600060096000888152602001908152602001600020600201541415613d51576000600a600088815260200190815260200160002060006101000a81548160ff02191690831515021790555060058b604051613d1e9190614a4a565b90815260200160405180910390206000888152602001908152602001600020600001600081548092919060010191905055505b5050505050506135ff565b600585604051613d6c9190614a4a565b9081526020016040518091039020600082815260200190815260200160002060010154600586604051613d9f9190614a4a565b908152602001604051809103902060008381526020019081526020016000206000015412613df8576001600686604051613dd99190614a4a565b9081526020016040518091039020600001600082825401925050819055505b50613542565b600083111561401b57613e0f6140d1565b6040518060a0016040528060006001811115613e2757fe5b81526020018373ffffffffffffffffffffffffffffffffffffffff1681526020018681526020018581526020018481525090508060096000600b54815260200190815260200160002060008201518160000160006101000a81548160ff02191690836001811115613e9457fe5b021790555060208201518160000160016101000a81548173ffffffffffffffffffffffffffffffffffffffff021916908373ffffffffffffffffffffffffffffffffffffffff1602179055506040820151816001019080519060200190613efc92919061417c565b506060820151816002015560808201518160030155905050613f1f600b546110c2565b600b54600c60008473ffffffffffffffffffffffffffffffffffffffff1673ffffffffffffffffffffffffffffffffffffffff1681526020019081526020016000206004016001016000600c60008673ffffffffffffffffffffffffffffffffffffffff1673ffffffffffffffffffffffffffffffffffffffff168152602001908152602001600020600401600001548152602001908152602001600020819055506001600c60008473ffffffffffffffffffffffffffffffffffffffff1673ffffffffffffffffffffffffffffffffffffffff168152602001908152602001600020600401600001600082825401925050819055505061401c565b5b50505050565b6040518060a0016040528060608152602001606081526020016060815260200160008152602001600081525090565b828054600181600116156101000203166002900490600052602060002090601f016020900481019282601f1061409257805160ff19168380011785556140c0565b828001600101855582156140c0579182015b828111156140bf5782518255916020019190600101906140a4565b5b5090506140cd919061424c565b5090565b6040518060a00160405280600060018111156140e957fe5b8152602001600073ffffffffffffffffffffffffffffffffffffffff1681526020016060815260200160008152602001600081525090565b6040518060a00160405280600073ffffffffffffffffffffffffffffffffffffffff168152602001600073ffffffffffffffffffffffffffffffffffffffff1681526020016060815260200160008152602001600081525090565b828054600181600116156101000203166002900490600052602060002090601f016020900481019282601f106141bd57805160ff19168380011785556141eb565b828001600101855582156141eb579182015b828111156141ea5782518255916020019190600101906141cf565b5b5090506141f8919061424c565b5090565b6040518060a001604052806000600181111561421457fe5b8152602001600073ffffffffffffffffffffffffffffffffffffffff1681526020016060815260200160008152602001600081525090565b61426e91905b8082111561426a576000816000905550600101614252565b5090565b90565b60008135905061428081614e13565b92915050565b600082601f83011261429757600080fd5b81356142aa6142a582614bea565b614bbd565b915080825260208301602083018583830111156142c657600080fd5b6142d1838284614db3565b50505092915050565b6000813590506142e981614e2a565b92915050565b60006020828403121561430157600080fd5b600061430f84828501614271565b91505092915050565b60008060006060848603121561432d57600080fd5b600061433b86828701614271565b935050602084013567ffffffffffffffff81111561435857600080fd5b61436486828701614286565b9250506040614375868287016142da565b9150509250925092565b6000806040838503121561439257600080fd5b60006143a085828601614271565b92505060206143b1858286016142da565b9150509250929050565b6000602082840312156143cd57600080fd5b600082013567ffffffffffffffff8111156143e757600080fd5b6143f384828501614286565b91505092915050565b6000806040838503121561440f57600080fd5b600083013567ffffffffffffffff81111561442957600080fd5b61443585828601614286565b9250506020614446858286016142da565b9150509250929050565b60008060006060848603121561446557600080fd5b600084013567ffffffffffffffff81111561447f57600080fd5b61448b86828701614286565b935050602061449c868287016142da565b92505060406144ad868287016142da565b9150509250925092565b6000602082840312156144c957600080fd5b60006144d7848285016142da565b91505092915050565b60006144ec8383614779565b905092915050565b60006145008383614940565b905092915050565b600061451483836149b6565b905092915050565b60006145288383614a2c565b60208301905092915050565b61453d81614d52565b82525050565b600061454e82614c6b565b6145588185614ce1565b93508360208202850161456a85614c16565b8060005b858110156145a6578484038952815161458785826144e0565b945061459283614cad565b925060208a0199505060018101905061456e565b50829750879550505050505092915050565b60006145c382614c76565b6145cd8185614cf2565b9350836020820285016145df85614c26565b8060005b8581101561461b57848403895281516145fc85826144f4565b945061460783614cba565b925060208a019950506001810190506145e3565b50829750879550505050505092915050565b600061463882614c81565b6146428185614d03565b93508360208202850161465485614c36565b8060005b8581101561469057848403895281516146718582614508565b945061467c83614cc7565b925060208a01995050600181019050614658565b50829750879550505050505092915050565b60006146ad82614c8c565b6146b78185614d14565b93506146c283614c46565b8060005b838110156146f35781516146da888261451c565b97506146e583614cd4565b9250506001810190506146c6565b5085935050505092915050565b61470981614da1565b82525050565b600061471a82614ca2565b6147248185614d36565b9350614734818560208601614dc2565b61473d81614df5565b840191505092915050565b600061475382614ca2565b61475d8185614d47565b935061476d818560208601614dc2565b80840191505092915050565b600061478482614c97565b61478e8185614d25565b935061479e818560208601614dc2565b6147a781614df5565b840191505092915050565b6000815460018116600081146147cf57600181146147f457614838565b607f60028304166147e08187614d47565b955060ff1983168652808601935050614838565b600282046148028187614d47565b955061480d85614c56565b60005b8281101561482f57815481890152600182019150602081019050614810565b82880195505050505b505092915050565b600061484d600a83614d36565b91507f4e6f7420612062616e6b000000000000000000000000000000000000000000006000830152602082019050919050565b600061488d601483614d36565b91507f416c7265616479206578697374696e67207461670000000000000000000000006000830152602082019050919050565b60006148cd601c83614d36565b91507f496e73756666696369656e742073746f636b7320666f722073656c6c000000006000830152602082019050919050565b600061490d601383614d36565b91507f496e73756666696369656e7420746f6b656e73000000000000000000000000006000830152602082019050919050565b600060a0830160008301516149586000860182614534565b50602083015161496b6020860182614534565b50604083015184820360408601526149838282614779565b91505060608301516149986060860182614a2c565b5060808301516149ab6080860182614a2c565b508091505092915050565b600060a0830160008301516149ce6000860182614700565b5060208301516149e16020860182614534565b50604083015184820360408601526149f98282614779565b9150506060830151614a0e6060860182614a2c565b506080830151614a216080860182614a2c565b508091505092915050565b614a3581614d97565b82525050565b614a4481614d97565b82525050565b6000614a568284614748565b915081905092915050565b6000614a6d82846147b2565b915081905092915050565b60006020820190508181036000830152614a928184614543565b905092915050565b60006020820190508181036000830152614ab481846145b8565b905092915050565b60006020820190508181036000830152614ad6818461462d565b905092915050565b60006020820190508181036000830152614af881846146a2565b905092915050565b60006020820190508181036000830152614b1a818461470f565b905092915050565b60006020820190508181036000830152614b3b81614840565b9050919050565b60006020820190508181036000830152614b5b81614880565b9050919050565b60006020820190508181036000830152614b7b816148c0565b9050919050565b60006020820190508181036000830152614b9b81614900565b9050919050565b6000602082019050614bb76000830184614a3b565b92915050565b6000604051905081810181811067ffffffffffffffff82111715614be057600080fd5b8060405250919050565b600067ffffffffffffffff821115614c0157600080fd5b601f19601f8301169050602081019050919050565b6000819050602082019050919050565b6000819050602082019050919050565b6000819050602082019050919050565b6000819050602082019050919050565b60008190508160005260206000209050919050565b600081519050919050565b600081519050919050565b600081519050919050565b600081519050919050565b600081519050919050565b600081519050919050565b6000602082019050919050565b6000602082019050919050565b6000602082019050919050565b6000602082019050919050565b600082825260208201905092915050565b600082825260208201905092915050565b600082825260208201905092915050565b600082825260208201905092915050565b600082825260208201905092915050565b600082825260208201905092915050565b600081905092915050565b6000614d5d82614d77565b9050919050565b6000819050614d7282614e06565b919050565b600073ffffffffffffffffffffffffffffffffffffffff82169050919050565b6000819050919050565b6000614dac82614d64565b9050919050565b82818337600083830152505050565b60005b83811015614de0578082015181840152602081019050614dc5565b83811115614def576000848401525b50505050565b6000601f19601f8301169050919050565b60028110614e1057fe5b50565b614e1c81614d52565b8114614e2757600080fd5b50565b614e3381614d97565b8114614e3e57600080fd5b5056fea365627a7a7231582084dcc5233983115ff5b3a235de8d639215d4accaa75e4505dabea5d5894e79516c6578706572696d656e74616cf564736f6c634300050c0040",
  "source": "pragma solidity ^0.5.0;\npragma experimental ABIEncoderV2;\n\n// observation : lots of orders with same price => no_of_distinct_prices << no_of_orders\n// idea 1: store prices in a heap, but if no_of_distinct_prices <= 100: better to store them in lists\n\nlibrary info {\n    enum OrderType {Buy, Sell}\n\n    struct Deque {\n        int begin;\n        int end;\n        uint total;\n        mapping(int => uint) ind;\n    }\n\n    struct Array {\n        uint size;\n        mapping(uint => uint) ind;\n    }\n\n    struct Order {\n        OrderType ot;\n        address owner;\n        string stock;\n        uint amount;\n        uint price;\n    }\n\n    struct Match {\n        address source;\n        address destination;\n        string stock;\n        uint amount;\n        uint price;\n    }\n\n    struct ExplicitMatch {\n        string source;\n        string destination;\n        string stock;\n        uint amount;\n        uint price;\n    }\n\n    struct Wallet {\n        uint tokens;\n        mapping(string => uint) stocks;\n        Array SellsInTransit;\n        Array BuysInTransit;\n        Match[] history;\n    }\n\n    struct Identity {\n        bool setTag;\n        string tag;\n    }\n}\n\n//TODO: change modifiers\ncontract NoBatchingSystem {\n\n    address bank;\n\n    // any information about tags, identity, username: not involved in functionality\n    mapping (address => info.Identity) tags;\n    mapping (string => bool) takenTag;\n\n    // currently traded stocks\n    string[] existingStocks;\n    mapping(string => bool) doesStockExist;\n\n    function newStock(string memory stock) public {\n        if (doesStockExist[stock]) return;\n        doesStockExist[stock] = true;\n        existingStocks.push(stock);\n    }\n\n    // OrderBook: (string => ...) = (stock => ...)\n    // for each stock: (string => ...)\n    //    sells, buys: (uint => ...) = (price => ...) : for each price, keep the list of orders with that price\n    //    sellPrices, buyPrices: list of prices currently trader for this stock\n    mapping(string => mapping(uint => info.Deque)) sells;\n    mapping(string => info.Deque) sellPrices;\n    mapping(string => mapping(uint => info.Deque)) buys;\n    mapping(string => info.Deque) buyPrices;\n\n    // log of orders: orders[i] = the i-th order since the creation of the contract\n    mapping(uint => info.Order) orders;\n    mapping(uint => bool) validOrder;\n    uint orderCounter;\n\n    // each trader: its wallet\n    mapping(address => info.Wallet) wallets;\n\n    constructor() public {\n        bank = msg.sender;\n        orderCounter = 0;\n        takenTag[\"\"] = true;\n    }\n\n    function pushSell(uint curr) public {\n        string memory stock = orders[curr].stock;\n        uint price = orders[curr].price;\n        uint amount = orders[curr].amount;\n\n        sells[stock][price].total += amount;\n\n        // empty list: price does not exist\n        if (sells[stock][price].begin >= sells[stock][price].end) {\n            //push the price \n\n            sellPrices[stock].begin -= 1;\n            sellPrices[stock].ind[sellPrices[stock].begin] = price;\n            \n            int it = sellPrices[stock].begin;\n            while (it + 1 < sellPrices[stock].end && sellPrices[stock].ind[it] > sellPrices[stock].ind[it+1]) {\n                uint tmp = sellPrices[stock].ind[it];\n                sellPrices[stock].ind[it] = sellPrices[stock].ind[it+1];\n                sellPrices[stock].ind[it+1] = tmp;\n\n                it += 1;\n            }\n        }\n\n        // append the order to the corresponding list\n        validOrder[curr] = true;\n        sells[stock][price].ind[sells[stock][price].end] = curr;\n        sells[stock][price].end++;\n    }\n\n    function pushBuy(uint curr) public {\n        string memory stock = orders[curr].stock;\n        uint price = orders[curr].price;\n        uint amount = orders[curr].amount;\n\n        buys[stock][price].total += amount;\n\n        // empty list: price does not exist\n        if (buys[stock][price].begin >= buys[stock][price].end) { \n            //push the price \n\n            buyPrices[stock].begin -= 1;\n            buyPrices[stock].ind[buyPrices[stock].begin] = price;\n\n            int it = buyPrices[stock].begin;\n            while (it + 1 < buyPrices[stock].end && buyPrices[stock].ind[it] < buyPrices[stock].ind[it+1]) {\n                uint tmp = buyPrices[stock].ind[it];\n                buyPrices[stock].ind[it] = buyPrices[stock].ind[it+1];\n                buyPrices[stock].ind[it+1] = tmp;\n\n                it += 1;\n            }\n        }\n\n        // append the order to the corresponding list\n        validOrder[curr] = true;\n        buys[stock][price].ind[buys[stock][price].end] = curr;\n        buys[stock][price].end++;\n    }\n\n    function performSell(string memory stock, uint amount, uint price) public {\n        address seller = msg.sender;\n\n        orderCounter += 1;\n\n        // try to immediately match this sell order with potential buy orders \n        while (amount > 0 && buyPrices[stock].begin < buyPrices[stock].end) {\n            uint bestPrice = buyPrices[stock].ind[buyPrices[stock].begin];\n            if (bestPrice < price) break; \n\n            while (amount > 0 && buys[stock][bestPrice].begin < buys[stock][bestPrice].end) {\n                // match as much as possible \n                uint indBestBuy = buys[stock][bestPrice].ind[buys[stock][bestPrice].begin]; // index of this order\n                info.Order memory bestBuy = orders[indBestBuy]; \n                address buyer = bestBuy.owner;\n\n                // bestBuy.price >= price\n                uint midPrice = (price + bestBuy.price) / 2;\n                uint midAmount = (amount < bestBuy.amount) ? amount : bestBuy.amount;\n\n                buys[stock][bestPrice].total -= midAmount;\n                orders[indBestBuy].amount -= midAmount;\n                amount -= midAmount;\n\n                wallets[seller].tokens += midPrice * midAmount;\n                wallets[buyer].tokens += (bestBuy.price - midPrice) * midAmount;\n                wallets[buyer].stocks[stock] += midAmount;\n\n                info.Match memory exc = info.Match(seller, buyer, stock, midAmount, midPrice);\n\n                wallets[seller].history.push(exc);\n                wallets[buyer].history.push(exc);\n\n                if (orders[indBestBuy].amount == 0) {\n                    validOrder[indBestBuy] = false;\n                    buys[stock][bestPrice].begin++;\n                    // emit OrderMatched(indBestBuy);\n                }\n            }\n\n            if (buys[stock][bestPrice].begin >= buys[stock][bestPrice].end) {\n                buyPrices[stock].begin += 1;\n            }\n        }\n\n        if (amount > 0) {\n            info.Order memory o = info.Order(info.OrderType.Sell, seller, stock, amount, price);\n            orders[orderCounter] = o;\n            pushSell(orderCounter);\n\n            wallets[seller].SellsInTransit.ind[wallets[seller].SellsInTransit.size] = orderCounter;\n            wallets[seller].SellsInTransit.size += 1;\n        }\n        else {\n            // emit OrderMatched(orderCounter);\n        }\n    }\n\n    function performBuy(string memory stock, uint amount, uint price) public {\n        address buyer = msg.sender;\n\n        orderCounter += 1;\n\n        while (amount > 0 && sellPrices[stock].begin < sellPrices[stock].end) {\n            uint bestPrice = sellPrices[stock].ind[sellPrices[stock].begin];\n            if (price < bestPrice) break;\n    \n            while (amount > 0 && sells[stock][bestPrice].begin < sells[stock][bestPrice].end) {\n                uint indBestSell = sells[stock][bestPrice].ind[sells[stock][bestPrice].begin];\n                info.Order memory bestSell = orders[indBestSell];\n                address seller = bestSell.owner;\n\n                // bestSell.price <= price\n                uint midPrice = (bestSell.price + price) / 2;\n                uint midAmount = (amount < bestSell.amount) ? amount : bestSell.amount;\n\n                sells[stock][bestPrice].total -= midAmount;\n                orders[indBestSell].amount -= midAmount;\n                amount -= midAmount;\n\n                wallets[seller].tokens += midPrice * midAmount;\n                wallets[buyer].tokens += (price - midPrice) * midAmount;\n                wallets[buyer].stocks[stock] += midAmount;\n\n                info.Match memory exc = info.Match(seller, buyer, stock, midAmount, midPrice);\n                // emit MatchEvent(seller, buyer, stock, midAmount, midPrice);\n\n                wallets[seller].history.push(exc);\n                wallets[buyer].history.push(exc);\n\n                if (orders[indBestSell].amount == 0) {\n                    validOrder[indBestSell] = false;\n                    sells[stock][bestPrice].begin++;\n                    // emit OrderMatched(indBestSell);\n                }\n            }\n\n            if (sells[stock][bestPrice].begin >= sells[stock][bestPrice].end) {\n                sellPrices[stock].begin += 1;\n            }\n        }\n\n        if (amount > 0) {\n            info.Order memory o = info.Order(info.OrderType.Buy, buyer, stock, amount, price);\n            orders[orderCounter] = o;\n            pushBuy(orderCounter);\n\n            wallets[buyer].BuysInTransit.ind[wallets[buyer].BuysInTransit.size] = orderCounter;\n            wallets[buyer].BuysInTransit.size += 1;\n        }\n        else {\n            // emit OrderMatched(orderCounter);\n        }\n    }\n\n    function sell(string memory stock, uint amount, uint price) public {\n        require(wallets[msg.sender].stocks[stock] >= amount, \"Insufficient stocks for sell\");\n        newStock(stock); // add stock if does not exist\n        wallets[msg.sender].stocks[stock] -= amount; // first charge seller with stocks\n        performSell(stock, amount, price); // add sell order to orderbook \n    }\n\n    function buy(string memory stock, uint amount, uint price) public {\n        require(wallets[msg.sender].tokens >= amount * price, \"Insufficient tokens\");\n        newStock(stock); // add stock if does not exist\n        wallets[msg.sender].tokens -= amount*price; // first charge buyer with tokens\n        performBuy(stock, amount, price); // add buy order to orderbook \n    }\n\n    function add_tokens(address to, uint amount) public {\n        require(msg.sender == bank, \"Not a bank\");\n        wallets[to].tokens += amount;\n    }\n\n    function add_stocks(address to, string memory stock, uint amount) public {\n        require(msg.sender == bank, \"Not a bank\");\n        newStock(stock); // add stock if does not exist\n        wallets[to].stocks[stock] += amount;\n    }\n\n    function setUsername(string memory name) public {\n        require(takenTag[name] == false, \"Already existing tag\");\n        if (tags[msg.sender].setTag) {\n            takenTag[tags[msg.sender].tag] = false;\n        }\n        takenTag[name] = true;\n        tags[msg.sender].tag = name;\n        tags[msg.sender].setTag = true;\n    }\n\n    // GETTERS\n\n    function getUsername(address account) public view returns (string memory) {\n        if (account == bank) return \"Bank\"; \n        return (tags[account].setTag) ? tags[account].tag : \"Undefined\";\n    }\n\n    function getWalletsTokens() public view returns (uint) {\n        return wallets[msg.sender].tokens;\n    }\n\n    function getWalletsStocks(string memory stock) public view returns(uint) {\n        return wallets[msg.sender].stocks[stock];\n    }\n\n    function getWalletsHistory(uint k) public view returns(info.Match[] memory) {\n        uint size = wallets[msg.sender].history.length;\n        uint limit = (k == 0) ? size : (k < size) ? k : size;\n        \n        info.ExplicitMatch[] memory history = new info.ExplicitMatch[](limit);\n        for (uint i = 0; i < limit; i++) {\n            history[i].source = getUsername(wallets[msg.sender].history[i].source);\n            history[i].destination = getUsername(wallets[msg.sender].history[i].destination);\n            history[i].stock = wallets[msg.sender].history[i].stock;\n            history[i].amount = wallets[msg.sender].history[i].amount;\n            history[i].price = wallets[msg.sender].history[i].price;\n        }\n\n        return wallets[msg.sender].history;\n    }\n\n    function getWalletsSellsInTransit() public view returns(info.Order[] memory) {\n        uint valids = 0;\n        for (uint i = 0; i < wallets[msg.sender].SellsInTransit.size; i++) {\n            if (validOrder[wallets[msg.sender].SellsInTransit.ind[i]]) {\n                valids += 1;\n            }\n        }\n\n        info.Order[] memory ords = new info.Order[](valids);\n\n        uint it = 0;\n        for (uint i = 0; i < wallets[msg.sender].SellsInTransit.size; i++) {\n            if (validOrder[wallets[msg.sender].SellsInTransit.ind[i]]) {\n                ords[it] = orders[wallets[msg.sender].SellsInTransit.ind[i]];\n                it += 1;\n            }\n        }\n        return ords;\n    }\n\n    function getWalletsBuysInTransit() public view returns(info.Order[] memory) {\n        uint valids = 0;\n        for (uint i = 0; i < wallets[msg.sender].BuysInTransit.size; i++) {\n            if (validOrder[wallets[msg.sender].BuysInTransit.ind[i]]) {\n                valids += 1;\n            }\n        }\n\n        info.Order[] memory ords = new info.Order[](valids);\n\n        uint it = 0;\n        for (uint i = 0; i < wallets[msg.sender].BuysInTransit.size; i++) {\n            if (validOrder[wallets[msg.sender].BuysInTransit.ind[i]]) {\n                ords[it] = orders[wallets[msg.sender].BuysInTransit.ind[i]];\n                it += 1;\n            }\n        }\n        return ords;\n    }\n\n    function getSellsInOrderBook(string memory stock, uint noPrices) public view returns(info.Order[] memory) {\n        uint size = (uint)(sellPrices[stock].end - sellPrices[stock].begin);\n        uint k = (noPrices < size) ? noPrices : size;\n\n        info.Order[] memory ords = new info.Order[](k);\n\n        for (uint i = 0; i < k; i++) {\n            ords[i].price = sellPrices[stock].ind[sellPrices[stock].begin + (int)(i)];\n            ords[i].amount = sells[stock][ords[i].price].total;\n            ords[i].stock = stock;\n        }\n        return ords;\n    }\n\n    function getBuysInOrderBook(string memory stock, uint noPrices) public view returns(info.Order[] memory) {\n        uint size = (uint)(buyPrices[stock].end - buyPrices[stock].begin);\n        uint k = (noPrices < size) ? noPrices : size;\n\n        info.Order[] memory ords = new info.Order[](k);\n\n        for (uint i = 0; i < k; i++) {\n            ords[i].price = buyPrices[stock].ind[buyPrices[stock].begin + (int)(i)];\n            ords[i].amount = buys[stock][ords[i].price].total;\n            ords[i].stock = stock;\n        }\n        return ords;\n    }\n\n    function getStocks() public view returns(string[] memory) {\n        return existingStocks;\n    }\n\n    // optional: debugging purpose\n\n    function getSellPrices(string memory stock) public view returns(uint[] memory) {\n        uint size = (uint)(sellPrices[stock].end - sellPrices[stock].begin);\n        uint[] memory ret = new uint[](size);\n\n        for (uint i = 0; i < size; ++i) {\n            ret[i] = sellPrices[stock].ind[sellPrices[stock].begin + (int)(i)];\n        }\n        return ret;\n    }\n    \n}",
  "sourcePath": "/Users/costintudor/workspace/myproject/contracts/NoBatchingSystem.sol",
  "compiler": {
    "name": "solc",
    "version": "0.5.12+commit.7709ece9.Emscripten.clang"
  },
  "schemaVersion": "3.0.20",
  "updatedAt": "2020-05-07T22:55:01.643Z",
  "networkType": "quorum",
  "devdoc": {
    "methods": {}
  },
  "userdoc": {
    "methods": {}
  }
}