{
  "contractName": "SimpleStorage",
  "abi": [
    {
      "inputs": [
        {
          "internalType": "uint256",
          "name": "initVal",
          "type": "uint256"
        }
      ],
      "payable": false,
      "stateMutability": "nonpayable",
      "type": "constructor"
    },
    {
      "constant": true,
      "inputs": [],
      "name": "storedData",
      "outputs": [
        {
          "internalType": "uint256",
          "name": "",
          "type": "uint256"
        }
      ],
      "payable": false,
      "stateMutability": "view",
      "type": "function"
    },
    {
      "constant": false,
      "inputs": [
        {
          "internalType": "uint256",
          "name": "x",
          "type": "uint256"
        }
      ],
      "name": "set",
      "outputs": [],
      "payable": false,
      "stateMutability": "nonpayable",
      "type": "function"
    },
    {
      "constant": true,
      "inputs": [],
      "name": "get",
      "outputs": [
        {
          "internalType": "uint256",
          "name": "retVal",
          "type": "uint256"
        }
      ],
      "payable": false,
      "stateMutability": "view",
      "type": "function"
    },
    {
      "constant": true,
      "inputs": [
        {
          "internalType": "uint256",
          "name": "a",
          "type": "uint256"
        },
        {
          "internalType": "uint256",
          "name": "b",
          "type": "uint256"
        }
      ],
      "name": "sum",
      "outputs": [
        {
          "internalType": "uint256",
          "name": "c",
          "type": "uint256"
        }
      ],
      "payable": false,
      "stateMutability": "pure",
      "type": "function"
    },
    {
      "constant": false,
      "inputs": [
        {
          "internalType": "uint256",
          "name": "n",
          "type": "uint256"
        }
      ],
      "name": "iterate",
      "outputs": [],
      "payable": false,
      "stateMutability": "nonpayable",
      "type": "function"
    }
  ],
  "bytecode": "0x608060405234801561001057600080fd5b506040516102233803806102238339818101604052602081101561003357600080fd5b810190808051906020019092919050505080600081905550506101c88061005b6000396000f3fe608060405234801561001057600080fd5b50600436106100575760003560e01c80632a1afcd91461005c57806360fe47b11461007a5780636d4ce63c146100a8578063cad0899b146100c6578063e2a098d114610112575b600080fd5b610064610140565b6040518082815260200191505060405180910390f35b6100a66004803603602081101561009057600080fd5b8101908080359060200190929190505050610146565b005b6100b0610150565b6040518082815260200191505060405180910390f35b6100fc600480360360408110156100dc57600080fd5b810190808035906020019092919080359060200190929190505050610159565b6040518082815260200191505060405180910390f35b61013e6004803603602081101561012857600080fd5b8101908080359060200190929190505050610166565b005b60005481565b8060008190555050565b60008054905090565b6000818301905092915050565b60008090505b8181101561018f576001600080828254019250508190555080600101905061016c565b505056fea265627a7a72315820f04de9695dd7a5d53c4b0703dbcb189adf1bd814f20bca80127412b8ac5c4a4664736f6c634300050c0032",
  "source": "// File: `./contracts/SimpleStorage.sol`\n\npragma solidity ^0.5.0;\n\ncontract SimpleStorage {\n  uint public storedData;\n\n  constructor(uint initVal) public {\n    storedData = initVal;\n  }\n\n  function set(uint x) public {\n    storedData = x;\n  }\n\n  function get() view public returns (uint retVal) {\n    return storedData;\n  }\n\n  function sum(uint a, uint b) pure public returns (uint c) {\n    c = a+b;\n  }\n\n  function iterate(uint n) public {\n    for (uint i = 0; i < n; ++i) {\n      storedData += 1;\n    }\n  }\n}",
  "sourcePath": "/Users/costintudor/workspace/myproject/contracts/SimpleStorage.sol",
  "compiler": {
    "name": "solc",
    "version": "0.5.12+commit.7709ece9.Emscripten.clang"
  },
  "schemaVersion": "3.0.20",
  "updatedAt": "2020-05-07T22:55:01.581Z",
  "networkType": "quorum",
  "devdoc": {
    "methods": {}
  },
  "userdoc": {
    "methods": {}
  }
}