{
  "contractName": "System",
  "abi": [
    {
      "inputs": [],
      "payable": false,
      "stateMutability": "nonpayable",
      "type": "constructor"
    },
    {
      "constant": false,
      "inputs": [
        {
          "internalType": "string",
          "name": "stock",
          "type": "string"
        }
      ],
      "name": "newStock",
      "outputs": [],
      "payable": false,
      "stateMutability": "nonpayable",
      "type": "function"
    },
    {
      "constant": false,
      "inputs": [
        {
          "internalType": "uint256",
          "name": "curr",
          "type": "uint256"
        }
      ],
      "name": "pushSell",
      "outputs": [],
      "payable": false,
      "stateMutability": "nonpayable",
      "type": "function"
    },
    {
      "constant": false,
      "inputs": [
        {
          "internalType": "uint256",
          "name": "curr",
          "type": "uint256"
        }
      ],
      "name": "pushBuy",
      "outputs": [],
      "payable": false,
      "stateMutability": "nonpayable",
      "type": "function"
    },
    {
      "constant": false,
      "inputs": [
        {
          "internalType": "address",
          "name": "seller",
          "type": "address"
        },
        {
          "internalType": "string",
          "name": "stock",
          "type": "string"
        },
        {
          "internalType": "uint256",
          "name": "amount",
          "type": "uint256"
        },
        {
          "internalType": "uint256",
          "name": "price",
          "type": "uint256"
        }
      ],
      "name": "performSell",
      "outputs": [],
      "payable": false,
      "stateMutability": "nonpayable",
      "type": "function"
    },
    {
      "constant": false,
      "inputs": [
        {
          "internalType": "address",
          "name": "buyer",
          "type": "address"
        },
        {
          "internalType": "string",
          "name": "stock",
          "type": "string"
        },
        {
          "internalType": "uint256",
          "name": "amount",
          "type": "uint256"
        },
        {
          "internalType": "uint256",
          "name": "price",
          "type": "uint256"
        }
      ],
      "name": "performBuy",
      "outputs": [],
      "payable": false,
      "stateMutability": "nonpayable",
      "type": "function"
    },
    {
      "constant": false,
      "inputs": [],
      "name": "pause",
      "outputs": [],
      "payable": false,
      "stateMutability": "nonpayable",
      "type": "function"
    },
    {
      "constant": true,
      "inputs": [],
      "name": "getQueueSize",
      "outputs": [
        {
          "internalType": "int256",
          "name": "",
          "type": "int256"
        }
      ],
      "payable": false,
      "stateMutability": "view",
      "type": "function"
    },
    {
      "constant": true,
      "inputs": [],
      "name": "getMatches",
      "outputs": [
        {
          "internalType": "uint256",
          "name": "",
          "type": "uint256"
        }
      ],
      "payable": false,
      "stateMutability": "view",
      "type": "function"
    },
    {
      "constant": false,
      "inputs": [
        {
          "internalType": "int256[]",
          "name": "rp",
          "type": "int256[]"
        }
      ],
      "name": "execute",
      "outputs": [],
      "payable": false,
      "stateMutability": "nonpayable",
      "type": "function"
    },
    {
      "constant": false,
      "inputs": [],
      "name": "restart",
      "outputs": [],
      "payable": false,
      "stateMutability": "nonpayable",
      "type": "function"
    },
    {
      "constant": false,
      "inputs": [
        {
          "internalType": "string",
          "name": "stock",
          "type": "string"
        },
        {
          "internalType": "uint256",
          "name": "amount",
          "type": "uint256"
        },
        {
          "internalType": "uint256",
          "name": "price",
          "type": "uint256"
        }
      ],
      "name": "sell",
      "outputs": [],
      "payable": false,
      "stateMutability": "nonpayable",
      "type": "function"
    },
    {
      "constant": false,
      "inputs": [
        {
          "internalType": "string",
          "name": "stock",
          "type": "string"
        },
        {
          "internalType": "uint256",
          "name": "amount",
          "type": "uint256"
        },
        {
          "internalType": "uint256",
          "name": "price",
          "type": "uint256"
        }
      ],
      "name": "buy",
      "outputs": [],
      "payable": false,
      "stateMutability": "nonpayable",
      "type": "function"
    },
    {
      "constant": false,
      "inputs": [
        {
          "internalType": "address",
          "name": "to",
          "type": "address"
        },
        {
          "internalType": "uint256",
          "name": "amount",
          "type": "uint256"
        }
      ],
      "name": "add_tokens",
      "outputs": [],
      "payable": false,
      "stateMutability": "nonpayable",
      "type": "function"
    },
    {
      "constant": false,
      "inputs": [
        {
          "internalType": "address",
          "name": "to",
          "type": "address"
        },
        {
          "internalType": "string",
          "name": "stock",
          "type": "string"
        },
        {
          "internalType": "uint256",
          "name": "amount",
          "type": "uint256"
        }
      ],
      "name": "add_stocks",
      "outputs": [],
      "payable": false,
      "stateMutability": "nonpayable",
      "type": "function"
    },
    {
      "constant": false,
      "inputs": [
        {
          "internalType": "string",
          "name": "name",
          "type": "string"
        }
      ],
      "name": "setUsername",
      "outputs": [],
      "payable": false,
      "stateMutability": "nonpayable",
      "type": "function"
    },
    {
      "constant": true,
      "inputs": [
        {
          "internalType": "address",
          "name": "account",
          "type": "address"
        }
      ],
      "name": "getUsername",
      "outputs": [
        {
          "internalType": "string",
          "name": "",
          "type": "string"
        }
      ],
      "payable": false,
      "stateMutability": "view",
      "type": "function"
    },
    {
      "constant": true,
      "inputs": [],
      "name": "getWalletsTokens",
      "outputs": [
        {
          "internalType": "uint256",
          "name": "",
          "type": "uint256"
        }
      ],
      "payable": false,
      "stateMutability": "view",
      "type": "function"
    },
    {
      "constant": true,
      "inputs": [
        {
          "internalType": "string",
          "name": "stock",
          "type": "string"
        }
      ],
      "name": "getWalletsStocks",
      "outputs": [
        {
          "internalType": "uint256",
          "name": "",
          "type": "uint256"
        }
      ],
      "payable": false,
      "stateMutability": "view",
      "type": "function"
    },
    {
      "constant": true,
      "inputs": [
        {
          "internalType": "uint256",
          "name": "k",
          "type": "uint256"
        }
      ],
      "name": "getWalletsHistory",
      "outputs": [
        {
          "components": [
            {
              "internalType": "address",
              "name": "source",
              "type": "address"
            },
            {
              "internalType": "address",
              "name": "destination",
              "type": "address"
            },
            {
              "internalType": "string",
              "name": "stock",
              "type": "string"
            },
            {
              "internalType": "uint256",
              "name": "amount",
              "type": "uint256"
            },
            {
              "internalType": "uint256",
              "name": "price",
              "type": "uint256"
            }
          ],
          "internalType": "struct info.Match[]",
          "name": "",
          "type": "tuple[]"
        }
      ],
      "payable": false,
      "stateMutability": "view",
      "type": "function"
    },
    {
      "constant": true,
      "inputs": [],
      "name": "getWalletsSellsInTransit",
      "outputs": [
        {
          "components": [
            {
              "internalType": "enum info.OrderType",
              "name": "ot",
              "type": "uint8"
            },
            {
              "internalType": "address",
              "name": "owner",
              "type": "address"
            },
            {
              "internalType": "string",
              "name": "stock",
              "type": "string"
            },
            {
              "internalType": "uint256",
              "name": "amount",
              "type": "uint256"
            },
            {
              "internalType": "uint256",
              "name": "price",
              "type": "uint256"
            }
          ],
          "internalType": "struct info.Order[]",
          "name": "",
          "type": "tuple[]"
        }
      ],
      "payable": false,
      "stateMutability": "view",
      "type": "function"
    },
    {
      "constant": true,
      "inputs": [],
      "name": "getWalletsBuysInTransit",
      "outputs": [
        {
          "components": [
            {
              "internalType": "enum info.OrderType",
              "name": "ot",
              "type": "uint8"
            },
            {
              "internalType": "address",
              "name": "owner",
              "type": "address"
            },
            {
              "internalType": "string",
              "name": "stock",
              "type": "string"
            },
            {
              "internalType": "uint256",
              "name": "amount",
              "type": "uint256"
            },
            {
              "internalType": "uint256",
              "name": "price",
              "type": "uint256"
            }
          ],
          "internalType": "struct info.Order[]",
          "name": "",
          "type": "tuple[]"
        }
      ],
      "payable": false,
      "stateMutability": "view",
      "type": "function"
    },
    {
      "constant": true,
      "inputs": [
        {
          "internalType": "string",
          "name": "stock",
          "type": "string"
        },
        {
          "internalType": "uint256",
          "name": "noPrices",
          "type": "uint256"
        }
      ],
      "name": "getSellsInOrderBook",
      "outputs": [
        {
          "components": [
            {
              "internalType": "enum info.OrderType",
              "name": "ot",
              "type": "uint8"
            },
            {
              "internalType": "address",
              "name": "owner",
              "type": "address"
            },
            {
              "internalType": "string",
              "name": "stock",
              "type": "string"
            },
            {
              "internalType": "uint256",
              "name": "amount",
              "type": "uint256"
            },
            {
              "internalType": "uint256",
              "name": "price",
              "type": "uint256"
            }
          ],
          "internalType": "struct info.Order[]",
          "name": "",
          "type": "tuple[]"
        }
      ],
      "payable": false,
      "stateMutability": "view",
      "type": "function"
    },
    {
      "constant": true,
      "inputs": [
        {
          "internalType": "string",
          "name": "stock",
          "type": "string"
        },
        {
          "internalType": "uint256",
          "name": "noPrices",
          "type": "uint256"
        }
      ],
      "name": "getBuysInOrderBook",
      "outputs": [
        {
          "components": [
            {
              "internalType": "enum info.OrderType",
              "name": "ot",
              "type": "uint8"
            },
            {
              "internalType": "address",
              "name": "owner",
              "type": "address"
            },
            {
              "internalType": "string",
              "name": "stock",
              "type": "string"
            },
            {
              "internalType": "uint256",
              "name": "amount",
              "type": "uint256"
            },
            {
              "internalType": "uint256",
              "name": "price",
              "type": "uint256"
            }
          ],
          "internalType": "struct info.Order[]",
          "name": "",
          "type": "tuple[]"
        }
      ],
      "payable": false,
      "stateMutability": "view",
      "type": "function"
    },
    {
      "constant": true,
      "inputs": [],
      "name": "getStocks",
      "outputs": [
        {
          "internalType": "string[]",
          "name": "",
          "type": "string[]"
        }
      ],
      "payable": false,
      "stateMutability": "view",
      "type": "function"
    },
    {
      "constant": true,
      "inputs": [
        {
          "internalType": "string",
          "name": "stock",
          "type": "string"
        }
      ],
      "name": "getSellPrices",
      "outputs": [
        {
          "internalType": "uint256[]",
          "name": "",
          "type": "uint256[]"
        }
      ],
      "payable": false,
      "stateMutability": "view",
      "type": "function"
    }
  ],
  "bytecode": "0x60806040523480156200001157600080fd5b50336000806101000a81548173ffffffffffffffffffffffffffffffffffffffff021916908373ffffffffffffffffffffffffffffffffffffffff1602179055506000600e81905550600160026040516200006c90620000b3565b908152602001604051809103902060006101000a81548160ff021916908315150217905550620000d5565b6000620000a6600083620000ca565b9150600082019050919050565b6000620000c08262000097565b9150819050919050565b600081905092915050565b6157f480620000e56000396000f3fe608060405234801561001057600080fd5b50600436106101735760003560e01c80639087ec0a116100de578063bf8d327111610097578063cecd134e11610071578063cecd134e1461040e578063d1fe958d1461042a578063d2c9dbf21461045a578063ed59313a1461047857610173565b8063bf8d327114610390578063ce348c6f146103c0578063ce43c032146103de57610173565b80639087ec0a146102d057806397e312d2146103005780639b0a5e671461031e578063a5cd0ea81461033a578063aa43220814610358578063b556861a1461037457610173565b80632e99d557116101305780632e99d557146102265780633d04c571146102425780636a8ba7cd1461025e57806372873bf41461027a5780637fa09fb9146102aa5780638456cb59146102c657610173565b806304804ee8146101785780631456ab1f146101945780631ef3755d146101c457806321533ab5146101ce5780632c70120e146101ec5780632cc4f6661461020a575b600080fd5b610192600480360361018d9190810190614ced565b610494565b005b6101ae60048036036101a99190810190614d54565b610617565b6040516101bb9190615386565b60405180910390f35b6101cc610c2f565b005b6101d6610ca5565b6040516101e39190615364565b60405180910390f35b6101f4610d8e565b60405161020191906154c9565b60405180910390f35b610224600480360361021f9190810190614d54565b610d98565b005b610240600480360361023b9190810190614d54565b611252565b005b61025c60048036036102579190810190614af9565b61170c565b005b61027860048036036102739190810190614c58565b611815565b005b610294600480360361028f9190810190614c58565b6118c5565b6040516102a191906154c9565b60405180910390f35b6102c460048036036102bf9190810190614c17565b61192d565b005b6102ce611bb8565b005b6102ea60048036036102e59190810190614c99565b611c2e565b6040516102f791906153a8565b60405180910390f35b610308611de7565b60405161031591906153a8565b60405180910390f35b61033860048036036103339190810190614ced565b6121c7565b005b61034261234b565b60405161034f91906153a8565b60405180910390f35b610372600480360361036d9190810190614b60565b61272b565b005b61038e60048036036103899190810190614bdb565b613311565b005b6103aa60048036036103a59190810190614c58565b6133f4565b6040516103b791906153ca565b60405180910390f35b6103c8613505565b6040516103d591906153ec565b60405180910390f35b6103f860048036036103f39190810190614ad0565b613519565b6040516104059190615407565b60405180910390f35b61042860048036036104239190810190614b60565b613720565b005b610444600480360361043f9190810190614c99565b61433d565b60405161045191906153a8565b60405180910390f35b6104626144f6565b60405161046f91906154c9565b60405180910390f35b610492600480360361048d9190810190614c58565b614540565b005b60001515601360009054906101000a900460ff161515146104ea576040517f08c379a00000000000000000000000000000000000000000000000000000000081526004016104e190615449565b60405180910390fd5b6104f261476b565b6040518060a0016040528060018081111561050957fe5b81526020013373ffffffffffffffffffffffffffffffffffffffff16815260200185815260200184815260200183815250905080600f6002016000600f60010154815260200190815260200160002060008201518160000160006101000a81548160ff0219169083600181111561057c57fe5b021790555060208201518160000160016101000a81548173ffffffffffffffffffffffffffffffffffffffff021916908373ffffffffffffffffffffffffffffffffffffffff16021790555060408201518160010190805190602001906105e49291906147bb565b506060820151816002015560808201518160030155905050600f6001016000815480929190600101919050555050505050565b60606000601260003373ffffffffffffffffffffffffffffffffffffffff1673ffffffffffffffffffffffffffffffffffffffff168152602001908152602001600020600601805490509050600080841461068057818410610679578161067b565b835b610682565b815b90506060816040519080825280602002602001820160405280156106c057816020015b6106ad61483b565b8152602001906001900390816106a55790505b50905060008090505b82811015610a2a57610758601260003373ffffffffffffffffffffffffffffffffffffffff1673ffffffffffffffffffffffffffffffffffffffff168152602001908152602001600020600601828154811061072157fe5b906000526020600020906005020160000160009054906101000a900473ffffffffffffffffffffffffffffffffffffffff16613519565b82828151811061076457fe5b6020026020010151600001819052506107fa601260003373ffffffffffffffffffffffffffffffffffffffff1673ffffffffffffffffffffffffffffffffffffffff16815260200190815260200160002060060182815481106107c357fe5b906000526020600020906005020160010160009054906101000a900473ffffffffffffffffffffffffffffffffffffffff16613519565b82828151811061080657fe5b602002602001015160200181905250601260003373ffffffffffffffffffffffffffffffffffffffff1673ffffffffffffffffffffffffffffffffffffffff168152602001908152602001600020600601818154811061086257fe5b90600052602060002090600502016002018054600181600116156101000203166002900480601f0160208091040260200160405190810160405280929190818152602001828054600181600116156101000203166002900480156109075780601f106108dc57610100808354040283529160200191610907565b820191906000526020600020905b8154815290600101906020018083116108ea57829003601f168201915b505050505082828151811061091857fe5b602002602001015160400181905250601260003373ffffffffffffffffffffffffffffffffffffffff1673ffffffffffffffffffffffffffffffffffffffff168152602001908152602001600020600601818154811061097457fe5b90600052602060002090600502016003015482828151811061099257fe5b60200260200101516060018181525050601260003373ffffffffffffffffffffffffffffffffffffffff1673ffffffffffffffffffffffffffffffffffffffff16815260200190815260200160002060060181815481106109ef57fe5b906000526020600020906005020160040154828281518110610a0d57fe5b6020026020010151608001818152505080806001019150506106c9565b50601260003373ffffffffffffffffffffffffffffffffffffffff1673ffffffffffffffffffffffffffffffffffffffff168152602001908152602001600020600601805480602002602001604051908101604052809291908181526020016000905b82821015610c2157838290600052602060002090600502016040518060a00160405290816000820160009054906101000a900473ffffffffffffffffffffffffffffffffffffffff1673ffffffffffffffffffffffffffffffffffffffff1673ffffffffffffffffffffffffffffffffffffffff1681526020016001820160009054906101000a900473ffffffffffffffffffffffffffffffffffffffff1673ffffffffffffffffffffffffffffffffffffffff1673ffffffffffffffffffffffffffffffffffffffff168152602001600282018054600181600116156101000203166002900480601f016020809104026020016040519081016040528092919081815260200182805460018160011615610100020316600290048015610bf55780601f10610bca57610100808354040283529160200191610bf5565b820191906000526020600020905b815481529060010190602001808311610bd857829003601f168201915b505050505081526020016003820154815260200160048201548152505081526020019060010190610a8d565b505050509350505050919050565b6000809054906101000a900473ffffffffffffffffffffffffffffffffffffffff1673ffffffffffffffffffffffffffffffffffffffff163373ffffffffffffffffffffffffffffffffffffffff1614610c8857600080fd5b6000601360006101000a81548160ff021916908315150217905550565b60606005805480602002602001604051908101604052809291908181526020016000905b82821015610d85578382906000526020600020018054600181600116156101000203166002900480601f016020809104026020016040519081016040528092919081815260200182805460018160011615610100020316600290048015610d715780601f10610d4657610100808354040283529160200191610d71565b820191906000526020600020905b815481529060010190602001808311610d5457829003601f168201915b505050505081526020019060010190610cc9565b50505050905090565b6000600754905090565b6060600c60008381526020019081526020016000206001018054600181600116156101000203166002900480601f016020809104026020016040519081016040528092919081815260200182805460018160011615610100020316600290048015610e445780601f10610e1957610100808354040283529160200191610e44565b820191906000526020600020905b815481529060010190602001808311610e2757829003601f168201915b505050505090506000600c60008481526020019081526020016000206003015490506000600c600085815260200190815260200160002060020154905080600884604051610e929190615336565b9081526020016040518091039020600084815260200190815260200160002060020160008282540192505081905550600883604051610ed19190615336565b9081526020016040518091039020600083815260200190815260200160002060010154600884604051610f049190615336565b908152602001604051809103902060008481526020019081526020016000206000015412611164576001600984604051610f3e9190615336565b90815260200160405180910390206000016000828254039250508190555081600984604051610f6d9190615336565b90815260200160405180910390206003016000600986604051610f909190615336565b9081526020016040518091039020600001548152602001908152602001600020819055506000600984604051610fc69190615336565b90815260200160405180910390206000015490505b600984604051610feb9190615336565b9081526020016040518091039020600101546001820112801561107457506009846040516110199190615336565b908152602001604051809103902060030160006001830181526020019081526020016000205460098560405161104f9190615336565b9081526020016040518091039020600301600083815260200190815260200160002054115b1561116257600060098560405161108b9190615336565b908152602001604051809103902060030160008381526020019081526020016000205490506009856040516110c09190615336565b90815260200160405180910390206003016000600184018152602001908152602001600020546009866040516110f69190615336565b90815260200160405180910390206003016000848152602001908152602001600020819055508060098660405161112d9190615336565b908152602001604051809103902060030160006001850181526020019081526020016000208190555060018201915050610fdb565b505b6001600d600086815260200190815260200160002060006101000a81548160ff021916908315150217905550836008846040516111a19190615336565b9081526020016040518091039020600084815260200190815260200160002060030160006008866040516111d59190615336565b908152602001604051809103902060008681526020019081526020016000206001015481526020019081526020016000208190555060088360405161121a9190615336565b908152602001604051809103902060008381526020019081526020016000206001016000815480929190600101919050555050505050565b6060600c60008381526020019081526020016000206001018054600181600116156101000203166002900480601f0160208091040260200160405190810160405280929190818152602001828054600181600116156101000203166002900480156112fe5780601f106112d3576101008083540402835291602001916112fe565b820191906000526020600020905b8154815290600101906020018083116112e157829003601f168201915b505050505090506000600c60008481526020019081526020016000206003015490506000600c600085815260200190815260200160002060020154905080600a8460405161134c9190615336565b9081526020016040518091039020600084815260200190815260200160002060020160008282540192505081905550600a8360405161138b9190615336565b9081526020016040518091039020600083815260200190815260200160002060010154600a846040516113be9190615336565b90815260200160405180910390206000848152602001908152602001600020600001541261161e576001600b846040516113f89190615336565b90815260200160405180910390206000016000828254039250508190555081600b846040516114279190615336565b90815260200160405180910390206003016000600b8660405161144a9190615336565b9081526020016040518091039020600001548152602001908152602001600020819055506000600b846040516114809190615336565b90815260200160405180910390206000015490505b600b846040516114a59190615336565b9081526020016040518091039020600101546001820112801561152e5750600b846040516114d39190615336565b9081526020016040518091039020600301600060018301815260200190815260200160002054600b856040516115099190615336565b9081526020016040518091039020600301600083815260200190815260200160002054105b1561161c576000600b856040516115459190615336565b90815260200160405180910390206003016000838152602001908152602001600020549050600b8560405161157a9190615336565b9081526020016040518091039020600301600060018401815260200190815260200160002054600b866040516115b09190615336565b908152602001604051809103902060030160008481526020019081526020016000208190555080600b866040516115e79190615336565b908152602001604051809103902060030160006001850181526020019081526020016000208190555060018201915050611495565b505b6001600d600086815260200190815260200160002060006101000a81548160ff02191690831515021790555083600a8460405161165b9190615336565b908152602001604051809103902060008481526020019081526020016000206003016000600a8660405161168f9190615336565b9081526020016040518091039020600086815260200190815260200160002060010154815260200190815260200160002081905550600a836040516116d49190615336565b908152602001604051809103902060008381526020019081526020016000206001016000815480929190600101919050555050505050565b6000809054906101000a900473ffffffffffffffffffffffffffffffffffffffff1673ffffffffffffffffffffffffffffffffffffffff163373ffffffffffffffffffffffffffffffffffffffff161461179b576040517f08c379a000000000000000000000000000000000000000000000000000000000815260040161179290615429565b60405180910390fd5b6117a482611815565b80601260008573ffffffffffffffffffffffffffffffffffffffff1673ffffffffffffffffffffffffffffffffffffffff168152602001908152602001600020600101836040516117f59190615336565b908152602001604051809103902060008282540192505081905550505050565b6006816040516118259190615336565b908152602001604051809103902060009054906101000a900460ff161561184b576118c2565b600160068260405161185d9190615336565b908152602001604051809103902060006101000a81548160ff02191690831515021790555060058190806001815401808255809150509060018203906000526020600020016000909192909190915090805190602001906118bf92919061486a565b50505b50565b6000601260003373ffffffffffffffffffffffffffffffffffffffff1673ffffffffffffffffffffffffffffffffffffffff168152602001908152602001600020600101826040516119179190615336565b9081526020016040518091039020549050919050565b6000809054906101000a900473ffffffffffffffffffffffffffffffffffffffff1673ffffffffffffffffffffffffffffffffffffffff163373ffffffffffffffffffffffffffffffffffffffff161461198657600080fd5b60011515601360009054906101000a900460ff161515146119a657600080fd5b6119ae61476b565b60008090505b8251811015611ba45760008382815181106119cb57fe5b60200260200101519050600f600201600082600f600001540181526020019081526020016000206040518060a00160405290816000820160009054906101000a900460ff166001811115611a1b57fe5b6001811115611a2657fe5b81526020016000820160019054906101000a900473ffffffffffffffffffffffffffffffffffffffff1673ffffffffffffffffffffffffffffffffffffffff1673ffffffffffffffffffffffffffffffffffffffff168152602001600182018054600181600116156101000203166002900480601f016020809104026020016040519081016040528092919081815260200182805460018160011615610100020316600290048015611b195780601f10611aee57610100808354040283529160200191611b19565b820191906000526020600020905b815481529060010190602001808311611afc57829003601f168201915b50505050508152602001600282015481526020016003820154815250509250600180811115611b4457fe5b83600001516001811115611b5457fe5b1415611b7b57611b768360200151846040015185606001518660800151613720565b611b98565b611b97836020015184604001518560600151866080015161272b565b5b508060010190506119b4565b50600f60010154600f600001819055505050565b6000809054906101000a900473ffffffffffffffffffffffffffffffffffffffff1673ffffffffffffffffffffffffffffffffffffffff163373ffffffffffffffffffffffffffffffffffffffff1614611c1157600080fd5b6001601360006101000a81548160ff021916908315150217905550565b60606000600b84604051611c429190615336565b908152602001604051809103902060000154600b85604051611c649190615336565b9081526020016040518091039020600101540390506000818410611c885781611c8a565b835b9050606081604051908082528060200260200182016040528015611cc857816020015b611cb56148ea565b815260200190600190039081611cad5790505b50905060008090505b82811015611dda57600b87604051611ce99190615336565b9081526020016040518091039020600301600082600b8a604051611d0d9190615336565b90815260200160405180910390206000015401815260200190815260200160002054828281518110611d3b57fe5b60200260200101516080018181525050600a87604051611d5b9190615336565b90815260200160405180910390206000838381518110611d7757fe5b602002602001015160800151815260200190815260200160002060020154828281518110611da157fe5b6020026020010151606001818152505086828281518110611dbe57fe5b6020026020010151604001819052508080600101915050611cd1565b5080935050505092915050565b6060600080905060008090505b601260003373ffffffffffffffffffffffffffffffffffffffff1673ffffffffffffffffffffffffffffffffffffffff16815260200190815260200160002060020160000154811015611ed157600d6000601260003373ffffffffffffffffffffffffffffffffffffffff1673ffffffffffffffffffffffffffffffffffffffff168152602001908152602001600020600201600101600084815260200190815260200160002054815260200190815260200160002060009054906101000a900460ff1615611ec4576001820191505b8080600101915050611df4565b50606081604051908082528060200260200182016040528015611f0e57816020015b611efb6148ea565b815260200190600190039081611ef35790505b509050600080905060008090505b601260003373ffffffffffffffffffffffffffffffffffffffff1673ffffffffffffffffffffffffffffffffffffffff168152602001908152602001600020600201600001548110156121bd57600d6000601260003373ffffffffffffffffffffffffffffffffffffffff1673ffffffffffffffffffffffffffffffffffffffff168152602001908152602001600020600201600101600084815260200190815260200160002054815260200190815260200160002060009054906101000a900460ff16156121b057600c6000601260003373ffffffffffffffffffffffffffffffffffffffff1673ffffffffffffffffffffffffffffffffffffffff16815260200190815260200160002060020160010160008481526020019081526020016000205481526020019081526020016000206040518060a00160405290816000820160009054906101000a900460ff16600181111561207757fe5b600181111561208257fe5b81526020016000820160019054906101000a900473ffffffffffffffffffffffffffffffffffffffff1673ffffffffffffffffffffffffffffffffffffffff1673ffffffffffffffffffffffffffffffffffffffff168152602001600182018054600181600116156101000203166002900480601f0160208091040260200160405190810160405280929190818152602001828054600181600116156101000203166002900480156121755780601f1061214a57610100808354040283529160200191612175565b820191906000526020600020905b81548152906001019060200180831161215857829003601f168201915b505050505081526020016002820154815260200160038201548152505083838151811061219e57fe5b60200260200101819052506001820191505b8080600101915050611f1c565b5081935050505090565b60001515601360009054906101000a900460ff1615151461221d576040517f08c379a000000000000000000000000000000000000000000000000000000000815260040161221490615449565b60405180910390fd5b61222561476b565b6040518060a001604052806000600181111561223d57fe5b81526020013373ffffffffffffffffffffffffffffffffffffffff16815260200185815260200184815260200183815250905080600f6002016000600f60010154815260200190815260200160002060008201518160000160006101000a81548160ff021916908360018111156122b057fe5b021790555060208201518160000160016101000a81548173ffffffffffffffffffffffffffffffffffffffff021916908373ffffffffffffffffffffffffffffffffffffffff16021790555060408201518160010190805190602001906123189291906147bb565b506060820151816002015560808201518160030155905050600f6001016000815480929190600101919050555050505050565b6060600080905060008090505b601260003373ffffffffffffffffffffffffffffffffffffffff1673ffffffffffffffffffffffffffffffffffffffff1681526020019081526020016000206004016000015481101561243557600d6000601260003373ffffffffffffffffffffffffffffffffffffffff1673ffffffffffffffffffffffffffffffffffffffff168152602001908152602001600020600401600101600084815260200190815260200160002054815260200190815260200160002060009054906101000a900460ff1615612428576001820191505b8080600101915050612358565b5060608160405190808252806020026020018201604052801561247257816020015b61245f6148ea565b8152602001906001900390816124575790505b509050600080905060008090505b601260003373ffffffffffffffffffffffffffffffffffffffff1673ffffffffffffffffffffffffffffffffffffffff1681526020019081526020016000206004016000015481101561272157600d6000601260003373ffffffffffffffffffffffffffffffffffffffff1673ffffffffffffffffffffffffffffffffffffffff168152602001908152602001600020600401600101600084815260200190815260200160002054815260200190815260200160002060009054906101000a900460ff161561271457600c6000601260003373ffffffffffffffffffffffffffffffffffffffff1673ffffffffffffffffffffffffffffffffffffffff16815260200190815260200160002060040160010160008481526020019081526020016000205481526020019081526020016000206040518060a00160405290816000820160009054906101000a900460ff1660018111156125db57fe5b60018111156125e657fe5b81526020016000820160019054906101000a900473ffffffffffffffffffffffffffffffffffffffff1673ffffffffffffffffffffffffffffffffffffffff1673ffffffffffffffffffffffffffffffffffffffff168152602001600182018054600181600116156101000203166002900480601f0160208091040260200160405190810160405280929190818152602001828054600181600116156101000203166002900480156126d95780601f106126ae576101008083540402835291602001916126d9565b820191906000526020600020905b8154815290600101906020018083116126bc57829003601f168201915b505050505081526020016002820154815260200160038201548152505083838151811061270257fe5b60200260200101819052506001820191505b8080600101915050612480565b5081935050505090565b808202601260008673ffffffffffffffffffffffffffffffffffffffff1673ffffffffffffffffffffffffffffffffffffffff1681526020019081526020016000206000015410156127b2576040517f08c379a00000000000000000000000000000000000000000000000000000000081526004016127a9906154a9565b60405180910390fd5b6127bb83611815565b808202601260008673ffffffffffffffffffffffffffffffffffffffff1673ffffffffffffffffffffffffffffffffffffffff168152602001908152602001600020600001600082825403925050819055506001600e600082825401925050819055505b600082118015612870575060098360405161283a9190615336565b90815260200160405180910390206001015460098460405161285c9190615336565b908152602001604051809103902060000154125b156130ed5760006009846040516128879190615336565b908152602001604051809103902060030160006009866040516128aa9190615336565b9081526020016040518091039020600001548152602001908152602001600020549050808210156128db57506130ed565b5b60008311801561294f57506008846040516128f79190615336565b908152602001604051809103902060008281526020019081526020016000206001015460088560405161292a9190615336565b9081526020016040518091039020600083815260200190815260200160002060000154125b1561304b5760006008856040516129669190615336565b90815260200160405180910390206000838152602001908152602001600020600301600060088760405161299a9190615336565b908152602001604051809103902060008581526020019081526020016000206000015481526020019081526020016000205490506129d661476b565b600c60008381526020019081526020016000206040518060a00160405290816000820160009054906101000a900460ff166001811115612a1257fe5b6001811115612a1d57fe5b81526020016000820160019054906101000a900473ffffffffffffffffffffffffffffffffffffffff1673ffffffffffffffffffffffffffffffffffffffff1673ffffffffffffffffffffffffffffffffffffffff168152602001600182018054600181600116156101000203166002900480601f016020809104026020016040519081016040528092919081815260200182805460018160011615610100020316600290048015612b105780601f10612ae557610100808354040283529160200191612b10565b820191906000526020600020905b815481529060010190602001808311612af357829003601f168201915b50505050508152602001600282015481526020016003820154815250509050600081602001519050600060028684608001510181612b4a57fe5b049050600083606001518810612b64578360600151612b66565b875b90508060088a604051612b799190615336565b908152602001604051809103902060008881526020019081526020016000206002016000828254039250508190555080600c6000878152602001908152602001600020600201600082825403925050819055508088039750808202601260008573ffffffffffffffffffffffffffffffffffffffff1673ffffffffffffffffffffffffffffffffffffffff168152602001908152602001600020600001600082825401925050819055508082880302601260008c73ffffffffffffffffffffffffffffffffffffffff1673ffffffffffffffffffffffffffffffffffffffff1681526020019081526020016000206000016000828254019250508190555080601260008c73ffffffffffffffffffffffffffffffffffffffff1673ffffffffffffffffffffffffffffffffffffffff1681526020019081526020016000206001018a604051612cc89190615336565b908152602001604051809103902060008282540192505081905550600760008154809291906001019190505550612cfd61493a565b6040518060a001604052808573ffffffffffffffffffffffffffffffffffffffff1681526020018c73ffffffffffffffffffffffffffffffffffffffff1681526020018b8152602001838152602001848152509050601260008573ffffffffffffffffffffffffffffffffffffffff1673ffffffffffffffffffffffffffffffffffffffff168152602001908152602001600020600601819080600181540180825580915050906001820390600052602060002090600502016000909192909190915060008201518160000160006101000a81548173ffffffffffffffffffffffffffffffffffffffff021916908373ffffffffffffffffffffffffffffffffffffffff16021790555060208201518160010160006101000a81548173ffffffffffffffffffffffffffffffffffffffff021916908373ffffffffffffffffffffffffffffffffffffffff1602179055506040820151816002019080519060200190612e6a9291906147bb565b506060820151816003015560808201518160040155505050601260008c73ffffffffffffffffffffffffffffffffffffffff1673ffffffffffffffffffffffffffffffffffffffff168152602001908152602001600020600601819080600181540180825580915050906001820390600052602060002090600502016000909192909190915060008201518160000160006101000a81548173ffffffffffffffffffffffffffffffffffffffff021916908373ffffffffffffffffffffffffffffffffffffffff16021790555060208201518160010160006101000a81548173ffffffffffffffffffffffffffffffffffffffff021916908373ffffffffffffffffffffffffffffffffffffffff1602179055506040820151816002019080519060200190612f9a9291906147bb565b5060608201518160030155608082015181600401555050506000600c6000888152602001908152602001600020600201541415613040576000600d600088815260200190815260200160002060006101000a81548160ff02191690831515021790555060088a60405161300d9190615336565b90815260200160405180910390206000888152602001908152602001600020600001600081548092919060010191905055505b5050505050506128dc565b60088460405161305b9190615336565b908152602001604051809103902060008281526020019081526020016000206001015460088560405161308e9190615336565b9081526020016040518091039020600083815260200190815260200160002060000154126130e75760016009856040516130c89190615336565b9081526020016040518091039020600001600082825401925050819055505b5061281f565b600082111561330a576130fe61476b565b6040518060a001604052806000600181111561311657fe5b81526020018673ffffffffffffffffffffffffffffffffffffffff16815260200185815260200184815260200183815250905080600c6000600e54815260200190815260200160002060008201518160000160006101000a81548160ff0219169083600181111561318357fe5b021790555060208201518160000160016101000a81548173ffffffffffffffffffffffffffffffffffffffff021916908373ffffffffffffffffffffffffffffffffffffffff16021790555060408201518160010190805190602001906131eb9291906147bb565b50606082015181600201556080820151816003015590505061320e600e54611252565b600e54601260008773ffffffffffffffffffffffffffffffffffffffff1673ffffffffffffffffffffffffffffffffffffffff1681526020019081526020016000206004016001016000601260008973ffffffffffffffffffffffffffffffffffffffff1673ffffffffffffffffffffffffffffffffffffffff168152602001908152602001600020600401600001548152602001908152602001600020819055506001601260008773ffffffffffffffffffffffffffffffffffffffff1673ffffffffffffffffffffffffffffffffffffffff168152602001908152602001600020600401600001600082825401925050819055505061330b565b5b50505050565b6000809054906101000a900473ffffffffffffffffffffffffffffffffffffffff1673ffffffffffffffffffffffffffffffffffffffff163373ffffffffffffffffffffffffffffffffffffffff16146133a0576040517f08c379a000000000000000000000000000000000000000000000000000000000815260040161339790615429565b60405180910390fd5b80601260008473ffffffffffffffffffffffffffffffffffffffff1673ffffffffffffffffffffffffffffffffffffffff168152602001908152602001600020600001600082825401925050819055505050565b606060006009836040516134089190615336565b90815260200160405180910390206000015460098460405161342a9190615336565b9081526020016040518091039020600101540390506060816040519080825280602002602001820160405280156134705781602001602082028038833980820191505090505b50905060008090505b828110156134fa576009856040516134919190615336565b90815260200160405180910390206003016000826009886040516134b59190615336565b908152602001604051809103902060000154018152602001908152602001600020548282815181106134e357fe5b602002602001018181525050806001019050613479565b508092505050919050565b6000600f60000154600f6001015403905090565b60606000809054906101000a900473ffffffffffffffffffffffffffffffffffffffff1673ffffffffffffffffffffffffffffffffffffffff168273ffffffffffffffffffffffffffffffffffffffff1614156135ad576040518060400160405280600481526020017f42616e6b00000000000000000000000000000000000000000000000000000000815250905061371b565b600160008373ffffffffffffffffffffffffffffffffffffffff1673ffffffffffffffffffffffffffffffffffffffff16815260200190815260200160002060000160009054906101000a900460ff1661363c576040518060400160405280600981526020017f556e646566696e65640000000000000000000000000000000000000000000000815250613718565b600160008373ffffffffffffffffffffffffffffffffffffffff1673ffffffffffffffffffffffffffffffffffffffff1681526020019081526020016000206001018054600181600116156101000203166002900480601f0160208091040260200160405190810160405280929190818152602001828054600181600116156101000203166002900480156137125780601f106136e757610100808354040283529160200191613712565b820191906000526020600020905b8154815290600101906020018083116136f557829003601f168201915b50505050505b90505b919050565b81601260008673ffffffffffffffffffffffffffffffffffffffff1673ffffffffffffffffffffffffffffffffffffffff168152602001908152602001600020600101846040516137719190615336565b90815260200160405180910390205410156137c1576040517f08c379a00000000000000000000000000000000000000000000000000000000081526004016137b890615489565b60405180910390fd5b6137ca83611815565b81601260008673ffffffffffffffffffffffffffffffffffffffff1673ffffffffffffffffffffffffffffffffffffffff1681526020019081526020016000206001018460405161381b9190615336565b9081526020016040518091039020600082825403925050819055506001600e600082825401925050819055505b6000821180156138995750600b836040516138639190615336565b908152602001604051809103902060010154600b846040516138859190615336565b908152602001604051809103902060000154125b1561411a576000600b846040516138b09190615336565b90815260200160405180910390206003016000600b866040516138d39190615336565b908152602001604051809103902060000154815260200190815260200160002054905081811015613904575061411a565b5b6000831180156139785750600a846040516139209190615336565b9081526020016040518091039020600082815260200190815260200160002060010154600a856040516139539190615336565b9081526020016040518091039020600083815260200190815260200160002060000154125b15614078576000600a8560405161398f9190615336565b908152602001604051809103902060008381526020019081526020016000206003016000600a876040516139c39190615336565b908152602001604051809103902060008581526020019081526020016000206000015481526020019081526020016000205490506139ff61476b565b600c60008381526020019081526020016000206040518060a00160405290816000820160009054906101000a900460ff166001811115613a3b57fe5b6001811115613a4657fe5b81526020016000820160019054906101000a900473ffffffffffffffffffffffffffffffffffffffff1673ffffffffffffffffffffffffffffffffffffffff1673ffffffffffffffffffffffffffffffffffffffff168152602001600182018054600181600116156101000203166002900480601f016020809104026020016040519081016040528092919081815260200182805460018160011615610100020316600290048015613b395780601f10613b0e57610100808354040283529160200191613b39565b820191906000526020600020905b815481529060010190602001808311613b1c57829003601f168201915b50505050508152602001600282015481526020016003820154815250509050600081602001519050600060028360800151870181613b7357fe5b049050600083606001518810613b8d578360600151613b8f565b875b905080600a8a604051613ba29190615336565b908152602001604051809103902060008881526020019081526020016000206002016000828254039250508190555080600c6000878152602001908152602001600020600201600082825403925050819055508088039750808202601260008c73ffffffffffffffffffffffffffffffffffffffff1673ffffffffffffffffffffffffffffffffffffffff16815260200190815260200160002060000160008282540192505081905550808285608001510302601260008573ffffffffffffffffffffffffffffffffffffffff1673ffffffffffffffffffffffffffffffffffffffff1681526020019081526020016000206000016000828254019250508190555080601260008573ffffffffffffffffffffffffffffffffffffffff1673ffffffffffffffffffffffffffffffffffffffff1681526020019081526020016000206001018a604051613cf59190615336565b908152602001604051809103902060008282540192505081905550600760008154809291906001019190505550613d2a61493a565b6040518060a001604052808c73ffffffffffffffffffffffffffffffffffffffff1681526020018573ffffffffffffffffffffffffffffffffffffffff1681526020018b8152602001838152602001848152509050601260008c73ffffffffffffffffffffffffffffffffffffffff1673ffffffffffffffffffffffffffffffffffffffff168152602001908152602001600020600601819080600181540180825580915050906001820390600052602060002090600502016000909192909190915060008201518160000160006101000a81548173ffffffffffffffffffffffffffffffffffffffff021916908373ffffffffffffffffffffffffffffffffffffffff16021790555060208201518160010160006101000a81548173ffffffffffffffffffffffffffffffffffffffff021916908373ffffffffffffffffffffffffffffffffffffffff1602179055506040820151816002019080519060200190613e979291906147bb565b506060820151816003015560808201518160040155505050601260008573ffffffffffffffffffffffffffffffffffffffff1673ffffffffffffffffffffffffffffffffffffffff168152602001908152602001600020600601819080600181540180825580915050906001820390600052602060002090600502016000909192909190915060008201518160000160006101000a81548173ffffffffffffffffffffffffffffffffffffffff021916908373ffffffffffffffffffffffffffffffffffffffff16021790555060208201518160010160006101000a81548173ffffffffffffffffffffffffffffffffffffffff021916908373ffffffffffffffffffffffffffffffffffffffff1602179055506040820151816002019080519060200190613fc79291906147bb565b5060608201518160030155608082015181600401555050506000600c600088815260200190815260200160002060020154141561406d576000600d600088815260200190815260200160002060006101000a81548160ff021916908315150217905550600a8a60405161403a9190615336565b90815260200160405180910390206000888152602001908152602001600020600001600081548092919060010191905055505b505050505050613905565b600a846040516140889190615336565b9081526020016040518091039020600082815260200190815260200160002060010154600a856040516140bb9190615336565b908152602001604051809103902060008381526020019081526020016000206000015412614114576001600b856040516140f59190615336565b9081526020016040518091039020600001600082825401925050819055505b50613848565b60008211156143365761412b61476b565b6040518060a0016040528060018081111561414257fe5b81526020018673ffffffffffffffffffffffffffffffffffffffff16815260200185815260200184815260200183815250905080600c6000600e54815260200190815260200160002060008201518160000160006101000a81548160ff021916908360018111156141af57fe5b021790555060208201518160000160016101000a81548173ffffffffffffffffffffffffffffffffffffffff021916908373ffffffffffffffffffffffffffffffffffffffff16021790555060408201518160010190805190602001906142179291906147bb565b50606082015181600201556080820151816003015590505061423a600e54610d98565b600e54601260008773ffffffffffffffffffffffffffffffffffffffff1673ffffffffffffffffffffffffffffffffffffffff1681526020019081526020016000206002016001016000601260008973ffffffffffffffffffffffffffffffffffffffff1673ffffffffffffffffffffffffffffffffffffffff168152602001908152602001600020600201600001548152602001908152602001600020819055506001601260008773ffffffffffffffffffffffffffffffffffffffff1673ffffffffffffffffffffffffffffffffffffffff1681526020019081526020016000206002016000016000828254019250508190555050614337565b5b50505050565b606060006009846040516143519190615336565b9081526020016040518091039020600001546009856040516143739190615336565b90815260200160405180910390206001015403905060008184106143975781614399565b835b90506060816040519080825280602002602001820160405280156143d757816020015b6143c46148ea565b8152602001906001900390816143bc5790505b50905060008090505b828110156144e9576009876040516143f89190615336565b908152602001604051809103902060030160008260098a60405161441c9190615336565b9081526020016040518091039020600001540181526020019081526020016000205482828151811061444a57fe5b6020026020010151608001818152505060088760405161446a9190615336565b9081526020016040518091039020600083838151811061448657fe5b6020026020010151608001518152602001908152602001600020600201548282815181106144b057fe5b60200260200101516060018181525050868282815181106144cd57fe5b60200260200101516040018190525080806001019150506143e0565b5080935050505092915050565b6000601260003373ffffffffffffffffffffffffffffffffffffffff1673ffffffffffffffffffffffffffffffffffffffff16815260200190815260200160002060000154905090565b600015156002826040516145549190615336565b908152602001604051809103902060009054906101000a900460ff161515146145b2576040517f08c379a00000000000000000000000000000000000000000000000000000000081526004016145a990615469565b60405180910390fd5b600160003373ffffffffffffffffffffffffffffffffffffffff1673ffffffffffffffffffffffffffffffffffffffff16815260200190815260200160002060000160009054906101000a900460ff16156146805760006002600160003373ffffffffffffffffffffffffffffffffffffffff1673ffffffffffffffffffffffffffffffffffffffff16815260200190815260200160002060010160405161465a919061534d565b908152602001604051809103902060006101000a81548160ff0219169083151502179055505b60016002826040516146929190615336565b908152602001604051809103902060006101000a81548160ff02191690831515021790555080600160003373ffffffffffffffffffffffffffffffffffffffff1673ffffffffffffffffffffffffffffffffffffffff168152602001908152602001600020600101908051906020019061470d92919061486a565b5060018060003373ffffffffffffffffffffffffffffffffffffffff1673ffffffffffffffffffffffffffffffffffffffff16815260200190815260200160002060000160006101000a81548160ff02191690831515021790555050565b6040518060a001604052806000600181111561478357fe5b8152602001600073ffffffffffffffffffffffffffffffffffffffff1681526020016060815260200160008152602001600081525090565b828054600181600116156101000203166002900490600052602060002090601f016020900481019282601f106147fc57805160ff191683800117855561482a565b8280016001018555821561482a579182015b8281111561482957825182559160200191906001019061480e565b5b5090506148379190614995565b5090565b6040518060a0016040528060608152602001606081526020016060815260200160008152602001600081525090565b828054600181600116156101000203166002900490600052602060002090601f016020900481019282601f106148ab57805160ff19168380011785556148d9565b828001600101855582156148d9579182015b828111156148d85782518255916020019190600101906148bd565b5b5090506148e69190614995565b5090565b6040518060a001604052806000600181111561490257fe5b8152602001600073ffffffffffffffffffffffffffffffffffffffff1681526020016060815260200160008152602001600081525090565b6040518060a00160405280600073ffffffffffffffffffffffffffffffffffffffff168152602001600073ffffffffffffffffffffffffffffffffffffffff1681526020016060815260200160008152602001600081525090565b6149b791905b808211156149b357600081600090555060010161499b565b5090565b90565b6000813590506149c98161576c565b92915050565b600082601f8301126149e057600080fd5b81356149f36149ee82615511565b6154e4565b91508181835260208401935060208101905083856020840282011115614a1857600080fd5b60005b83811015614a485781614a2e8882614a52565b845260208401935060208301925050600181019050614a1b565b5050505092915050565b600081359050614a6181615783565b92915050565b600082601f830112614a7857600080fd5b8135614a8b614a8682615539565b6154e4565b91508082526020830160208301858383011115614aa757600080fd5b614ab283828461570c565b50505092915050565b600081359050614aca8161579a565b92915050565b600060208284031215614ae257600080fd5b6000614af0848285016149ba565b91505092915050565b600080600060608486031215614b0e57600080fd5b6000614b1c868287016149ba565b935050602084013567ffffffffffffffff811115614b3957600080fd5b614b4586828701614a67565b9250506040614b5686828701614abb565b9150509250925092565b60008060008060808587031215614b7657600080fd5b6000614b84878288016149ba565b945050602085013567ffffffffffffffff811115614ba157600080fd5b614bad87828801614a67565b9350506040614bbe87828801614abb565b9250506060614bcf87828801614abb565b91505092959194509250565b60008060408385031215614bee57600080fd5b6000614bfc858286016149ba565b9250506020614c0d85828601614abb565b9150509250929050565b600060208284031215614c2957600080fd5b600082013567ffffffffffffffff811115614c4357600080fd5b614c4f848285016149cf565b91505092915050565b600060208284031215614c6a57600080fd5b600082013567ffffffffffffffff811115614c8457600080fd5b614c9084828501614a67565b91505092915050565b60008060408385031215614cac57600080fd5b600083013567ffffffffffffffff811115614cc657600080fd5b614cd285828601614a67565b9250506020614ce385828601614abb565b9150509250929050565b600080600060608486031215614d0257600080fd5b600084013567ffffffffffffffff811115614d1c57600080fd5b614d2886828701614a67565b9350506020614d3986828701614abb565b9250506040614d4a86828701614abb565b9150509250925092565b600060208284031215614d6657600080fd5b6000614d7484828501614abb565b91505092915050565b6000614d898383615025565b905092915050565b6000614d9d838361522c565b905092915050565b6000614db183836152a2565b905092915050565b6000614dc58383615318565b60208301905092915050565b614dda816156a1565b82525050565b6000614deb826155ba565b614df58185615630565b935083602082028501614e0785615565565b8060005b85811015614e435784840389528151614e248582614d7d565b9450614e2f836155fc565b925060208a01995050600181019050614e0b565b50829750879550505050505092915050565b6000614e60826155c5565b614e6a8185615641565b935083602082028501614e7c85615575565b8060005b85811015614eb85784840389528151614e998582614d91565b9450614ea483615609565b925060208a01995050600181019050614e80565b50829750879550505050505092915050565b6000614ed5826155d0565b614edf8185615652565b935083602082028501614ef185615585565b8060005b85811015614f2d5784840389528151614f0e8582614da5565b9450614f1983615616565b925060208a01995050600181019050614ef5565b50829750879550505050505092915050565b6000614f4a826155db565b614f548185615663565b9350614f5f83615595565b8060005b83811015614f90578151614f778882614db9565b9750614f8283615623565b925050600181019050614f63565b5085935050505092915050565b614fa6816156fa565b82525050565b614fb5816156c6565b82525050565b6000614fc6826155f1565b614fd08185615685565b9350614fe081856020860161571b565b614fe98161574e565b840191505092915050565b6000614fff826155f1565b6150098185615696565b935061501981856020860161571b565b80840191505092915050565b6000615030826155e6565b61503a8185615674565b935061504a81856020860161571b565b6150538161574e565b840191505092915050565b60008154600181166000811461507b57600181146150a0576150e4565b607f600283041661508c8187615696565b955060ff19831686528086019350506150e4565b600282046150ae8187615696565b95506150b9856155a5565b60005b828110156150db578154818901526001820191506020810190506150bc565b82880195505050505b505092915050565b60006150f9600a83615685565b91507f4e6f7420612062616e6b000000000000000000000000000000000000000000006000830152602082019050919050565b6000615139601783615685565b91507f53797374656d2063757272656e746c79207061757365640000000000000000006000830152602082019050919050565b6000615179601483615685565b91507f416c7265616479206578697374696e67207461670000000000000000000000006000830152602082019050919050565b60006151b9601c83615685565b91507f496e73756666696369656e742073746f636b7320666f722073656c6c000000006000830152602082019050919050565b60006151f9601383615685565b91507f496e73756666696369656e7420746f6b656e73000000000000000000000000006000830152602082019050919050565b600060a0830160008301516152446000860182614dd1565b5060208301516152576020860182614dd1565b506040830151848203604086015261526f8282615025565b91505060608301516152846060860182615318565b5060808301516152976080860182615318565b508091505092915050565b600060a0830160008301516152ba6000860182614f9d565b5060208301516152cd6020860182614dd1565b50604083015184820360408601526152e58282615025565b91505060608301516152fa6060860182615318565b50608083015161530d6080860182615318565b508091505092915050565b615321816156f0565b82525050565b615330816156f0565b82525050565b60006153428284614ff4565b915081905092915050565b6000615359828461505e565b915081905092915050565b6000602082019050818103600083015261537e8184614de0565b905092915050565b600060208201905081810360008301526153a08184614e55565b905092915050565b600060208201905081810360008301526153c28184614eca565b905092915050565b600060208201905081810360008301526153e48184614f3f565b905092915050565b60006020820190506154016000830184614fac565b92915050565b600060208201905081810360008301526154218184614fbb565b905092915050565b60006020820190508181036000830152615442816150ec565b9050919050565b600060208201905081810360008301526154628161512c565b9050919050565b600060208201905081810360008301526154828161516c565b9050919050565b600060208201905081810360008301526154a2816151ac565b9050919050565b600060208201905081810360008301526154c2816151ec565b9050919050565b60006020820190506154de6000830184615327565b92915050565b6000604051905081810181811067ffffffffffffffff8211171561550757600080fd5b8060405250919050565b600067ffffffffffffffff82111561552857600080fd5b602082029050602081019050919050565b600067ffffffffffffffff82111561555057600080fd5b601f19601f8301169050602081019050919050565b6000819050602082019050919050565b6000819050602082019050919050565b6000819050602082019050919050565b6000819050602082019050919050565b60008190508160005260206000209050919050565b600081519050919050565b600081519050919050565b600081519050919050565b600081519050919050565b600081519050919050565b600081519050919050565b6000602082019050919050565b6000602082019050919050565b6000602082019050919050565b6000602082019050919050565b600082825260208201905092915050565b600082825260208201905092915050565b600082825260208201905092915050565b600082825260208201905092915050565b600082825260208201905092915050565b600082825260208201905092915050565b600081905092915050565b60006156ac826156d0565b9050919050565b60008190506156c18261575f565b919050565b6000819050919050565b600073ffffffffffffffffffffffffffffffffffffffff82169050919050565b6000819050919050565b6000615705826156b3565b9050919050565b82818337600083830152505050565b60005b8381101561573957808201518184015260208101905061571e565b83811115615748576000848401525b50505050565b6000601f19601f8301169050919050565b6002811061576957fe5b50565b615775816156a1565b811461578057600080fd5b50565b61578c816156c6565b811461579757600080fd5b50565b6157a3816156f0565b81146157ae57600080fd5b5056fea365627a7a723158204d29ad8e962f69d6111658b47c53e8cf1cb7b741d457f96d3206e20fb30eca1e6c6578706572696d656e74616cf564736f6c634300050c0040",
  "source": "pragma solidity ^0.5.0;\npragma experimental ABIEncoderV2;\n\nlibrary info {\n    enum OrderType {Buy, Sell}\n\n    struct Deque {\n        int begin;\n        int end;\n        uint total;\n        mapping(int => uint) ind;\n    }\n\n    struct OrderQueue {\n        int begin;\n        int end;\n        mapping(int => Order) ind;\n    }\n\n    struct Array {\n        uint size;\n        mapping(uint => uint) ind;\n    }\n\n    struct ArrayAddress {\n        uint size;\n        mapping(uint => address) ind;\n    }\n\n    struct Order {\n        OrderType ot;\n        address owner;\n        string stock;\n        uint amount;\n        uint price;\n    }\n\n    struct Match {\n        address source;\n        address destination;\n        string stock;\n        uint amount;\n        uint price;\n    }\n\n    struct ExplicitMatch {\n        string source;\n        string destination;\n        string stock;\n        uint amount;\n        uint price;\n    }\n\n    struct Wallet {\n        uint tokens;\n        mapping(string => uint) stocks;\n        Array SellsInTransit;\n        Array BuysInTransit;\n        Match[] history;\n    }\n\n    struct Identity {\n        bool setTag;\n        string tag;\n    }\n}\n\n//TODO: change modifiers\ncontract System {\n\n    address bank;\n\n    // any information about tags, identity, username: not involved in functionality\n    mapping (address => info.Identity) tags;\n    mapping (string => bool) takenTag;\n\n    info.ArrayAddress latencyOrder;\n\n    // currently traded stocks\n    string[] existingStocks;\n    mapping(string => bool) doesStockExist;\n\n    function newStock(string memory stock) public {\n        if (doesStockExist[stock]) return;\n        doesStockExist[stock] = true;\n        existingStocks.push(stock);\n    }\n\n    uint matches;\n\n    // OrderBook: (string => ...) = (stock => ...)\n    // for each stock: (string => ...)\n    //    sells, buys: (uint => ...) = (price => ...) : for each price, keep the list of orders with that price\n    //    sellPrices, buyPrices: list of prices currently trader for this stock\n    mapping(string => mapping(uint => info.Deque)) sells;\n    mapping(string => info.Deque) sellPrices;\n    mapping(string => mapping(uint => info.Deque)) buys;\n    mapping(string => info.Deque) buyPrices;\n\n    // log of orders: orders[i] = the i-th order since the creation of the contract\n    mapping(uint => info.Order) orders;\n    mapping(uint => bool) validOrder;\n    uint orderCounter;\n\n    info.OrderQueue queue;\n\n    // each trader: its wallet\n    mapping(address => info.Wallet) wallets;\n\n    constructor() public {\n        bank = msg.sender;\n        orderCounter = 0;\n        takenTag[\"\"] = true;\n    }\n\n    function pushSell(uint curr) public {\n        string memory stock = orders[curr].stock;\n        uint price = orders[curr].price;\n        uint amount = orders[curr].amount;\n\n        sells[stock][price].total += amount;\n\n        // empty list: price does not exist\n        if (sells[stock][price].begin >= sells[stock][price].end) {\n            //push the price \n\n            sellPrices[stock].begin -= 1;\n            sellPrices[stock].ind[sellPrices[stock].begin] = price;\n            \n            int it = sellPrices[stock].begin;\n            while (it + 1 < sellPrices[stock].end && sellPrices[stock].ind[it] > sellPrices[stock].ind[it+1]) {\n                uint tmp = sellPrices[stock].ind[it];\n                sellPrices[stock].ind[it] = sellPrices[stock].ind[it+1];\n                sellPrices[stock].ind[it+1] = tmp;\n\n                it += 1;\n            }\n        }\n\n        // append the order to the corresponding list\n        validOrder[curr] = true;\n        sells[stock][price].ind[sells[stock][price].end] = curr;\n        sells[stock][price].end++;\n    }\n\n    function pushBuy(uint curr) public {\n        string memory stock = orders[curr].stock;\n        uint price = orders[curr].price;\n        uint amount = orders[curr].amount;\n\n        buys[stock][price].total += amount;\n\n        // empty list: price does not exist\n        if (buys[stock][price].begin >= buys[stock][price].end) { \n            //push the price \n\n            buyPrices[stock].begin -= 1;\n            buyPrices[stock].ind[buyPrices[stock].begin] = price;\n\n            int it = buyPrices[stock].begin;\n            while (it + 1 < buyPrices[stock].end && buyPrices[stock].ind[it] < buyPrices[stock].ind[it+1]) {\n                uint tmp = buyPrices[stock].ind[it];\n                buyPrices[stock].ind[it] = buyPrices[stock].ind[it+1];\n                buyPrices[stock].ind[it+1] = tmp;\n\n                it += 1;\n            }\n        }\n\n        // append the order to the corresponding list\n        validOrder[curr] = true;\n        buys[stock][price].ind[buys[stock][price].end] = curr;\n        buys[stock][price].end++;\n    }\n\n    function performSell(address seller, string memory stock, uint amount, uint price) public {\n        require(wallets[seller].stocks[stock] >= amount, \"Insufficient stocks for sell\");\n\n        newStock(stock); // add stock if does not exist\n        wallets[seller].stocks[stock] -= amount; // first charge seller with stocks\n\n        orderCounter += 1;\n\n        // try to immediately match this sell order with potential buy orders \n        while (amount > 0 && buyPrices[stock].begin < buyPrices[stock].end) {\n            uint bestPrice = buyPrices[stock].ind[buyPrices[stock].begin];\n            if (bestPrice < price) break; \n\n            while (amount > 0 && buys[stock][bestPrice].begin < buys[stock][bestPrice].end) {\n                // match as much as possible \n                uint indBestBuy = buys[stock][bestPrice].ind[buys[stock][bestPrice].begin]; // index of this order\n                info.Order memory bestBuy = orders[indBestBuy]; \n                address buyer = bestBuy.owner;\n\n                // bestBuy.price >= price\n                uint midPrice = (price + bestBuy.price) / 2;\n                uint midAmount = (amount < bestBuy.amount) ? amount : bestBuy.amount;\n\n                buys[stock][bestPrice].total -= midAmount;\n                orders[indBestBuy].amount -= midAmount;\n                amount -= midAmount;\n\n                wallets[seller].tokens += midPrice * midAmount;\n                wallets[buyer].tokens += (bestBuy.price - midPrice) * midAmount;\n                wallets[buyer].stocks[stock] += midAmount;\n\n                matches++;\n                info.Match memory exc = info.Match(seller, buyer, stock, midAmount, midPrice);\n\n                wallets[seller].history.push(exc);\n                wallets[buyer].history.push(exc);\n\n                if (orders[indBestBuy].amount == 0) {\n                    validOrder[indBestBuy] = false;\n                    buys[stock][bestPrice].begin++;\n                    // emit OrderMatched(indBestBuy);\n                }\n            }\n\n            if (buys[stock][bestPrice].begin >= buys[stock][bestPrice].end) {\n                buyPrices[stock].begin += 1;\n            }\n        }\n\n        if (amount > 0) {\n            info.Order memory o = info.Order(info.OrderType.Sell, seller, stock, amount, price);\n            orders[orderCounter] = o;\n            pushSell(orderCounter);\n\n            wallets[seller].SellsInTransit.ind[wallets[seller].SellsInTransit.size] = orderCounter;\n            wallets[seller].SellsInTransit.size += 1;\n        }\n        else {\n            // emit OrderMatched(orderCounter);\n        }\n    }\n\n    function performBuy(address buyer, string memory stock, uint amount, uint price) public {\n        require(wallets[buyer].tokens >= amount * price, \"Insufficient tokens\");\n\n        newStock(stock); // add stock if does not exist\n        wallets[buyer].tokens -= amount*price; // first charge buyer with tokens\n\n        orderCounter += 1;\n\n        while (amount > 0 && sellPrices[stock].begin < sellPrices[stock].end) {\n            uint bestPrice = sellPrices[stock].ind[sellPrices[stock].begin];\n            if (price < bestPrice) break;\n    \n            while (amount > 0 && sells[stock][bestPrice].begin < sells[stock][bestPrice].end) {\n                uint indBestSell = sells[stock][bestPrice].ind[sells[stock][bestPrice].begin];\n                info.Order memory bestSell = orders[indBestSell];\n                address seller = bestSell.owner;\n\n                // bestSell.price <= price\n                uint midPrice = (bestSell.price + price) / 2;\n                uint midAmount = (amount < bestSell.amount) ? amount : bestSell.amount;\n\n                sells[stock][bestPrice].total -= midAmount;\n                orders[indBestSell].amount -= midAmount;\n                amount -= midAmount;\n\n                wallets[seller].tokens += midPrice * midAmount;\n                wallets[buyer].tokens += (price - midPrice) * midAmount;\n                wallets[buyer].stocks[stock] += midAmount;\n\n                matches++;\n                info.Match memory exc = info.Match(seller, buyer, stock, midAmount, midPrice);\n                // emit MatchEvent(seller, buyer, stock, midAmount, midPrice);\n\n                wallets[seller].history.push(exc);\n                wallets[buyer].history.push(exc);\n\n                if (orders[indBestSell].amount == 0) {\n                    validOrder[indBestSell] = false;\n                    sells[stock][bestPrice].begin++;\n                    // emit OrderMatched(indBestSell);\n                }\n            }\n\n            if (sells[stock][bestPrice].begin >= sells[stock][bestPrice].end) {\n                sellPrices[stock].begin += 1;\n            }\n        }\n\n        if (amount > 0) {\n            info.Order memory o = info.Order(info.OrderType.Buy, buyer, stock, amount, price);\n            orders[orderCounter] = o;\n            pushBuy(orderCounter);\n\n            wallets[buyer].BuysInTransit.ind[wallets[buyer].BuysInTransit.size] = orderCounter;\n            wallets[buyer].BuysInTransit.size += 1;\n        }\n        else {\n            // emit OrderMatched(orderCounter);\n        }\n    }\n\n    bool paused;\n    function pause() public {\n        require(msg.sender == bank);\n        paused = true;\n    }\n\n    function getQueueSize() view public returns (int) {\n        return queue.end - queue.begin;\n    }\n\n    function getMatches() view public returns (uint) {\n        return matches;\n    }\n\n    function execute(int[] memory rp) public {\n        require(msg.sender == bank);\n        require(paused == true);\n\n        info.Order memory o;\n        for (uint it = 0; it < rp.length; ++it) {\n            int j = rp[it];\n            o = queue.ind[queue.begin + j];\n\n            if (o.ot == info.OrderType.Sell) {\n                performSell(o.owner, o.stock, o.amount, o.price);\n            }\n            else {\n                performBuy(o.owner, o.stock, o.amount, o.price);\n            }\n        }\n        queue.begin = queue.end;\n    }\n\n    function restart() public { \n        require(msg.sender == bank);\n        paused = false;\n    }\n\n    function sell(string memory stock, uint amount, uint price) public {\n        require(paused == false, \"System currently paused\");\n        info.Order memory raw = info.Order(info.OrderType.Sell, msg.sender, stock, amount, price);\n        queue.ind[queue.end] = raw;\n        queue.end++;\n    }\n\n    function buy(string memory stock, uint amount, uint price) public {\n        require(paused == false, \"System currently paused\");\n        info.Order memory raw = info.Order(info.OrderType.Buy, msg.sender, stock, amount, price);\n        queue.ind[queue.end] = raw;\n        queue.end++;\n    }\n\n    function add_tokens(address to, uint amount) public {\n        require(msg.sender == bank, \"Not a bank\");\n        wallets[to].tokens += amount;\n    }\n\n    function add_stocks(address to, string memory stock, uint amount) public {\n        require(msg.sender == bank, \"Not a bank\");\n        newStock(stock); // add stock if does not exist\n        wallets[to].stocks[stock] += amount;\n    }\n\n    function setUsername(string memory name) public {\n        require(takenTag[name] == false, \"Already existing tag\");\n        if (tags[msg.sender].setTag) {\n            takenTag[tags[msg.sender].tag] = false;\n        }\n        takenTag[name] = true;\n        tags[msg.sender].tag = name;\n        tags[msg.sender].setTag = true;\n    }\n\n    // GETTERS\n\n    function getUsername(address account) public view returns (string memory) {\n        if (account == bank) return \"Bank\"; \n        return (tags[account].setTag) ? tags[account].tag : \"Undefined\";\n    }\n\n    function getWalletsTokens() public view returns (uint) {\n        return wallets[msg.sender].tokens;\n    }\n\n    function getWalletsStocks(string memory stock) public view returns(uint) {\n        return wallets[msg.sender].stocks[stock];\n    }\n\n    function getWalletsHistory(uint k) public view returns(info.Match[] memory) {\n        uint size = wallets[msg.sender].history.length;\n        uint limit = (k == 0) ? size : (k < size) ? k : size;\n        \n        info.ExplicitMatch[] memory history = new info.ExplicitMatch[](limit);\n        for (uint i = 0; i < limit; i++) {\n            history[i].source = getUsername(wallets[msg.sender].history[i].source);\n            history[i].destination = getUsername(wallets[msg.sender].history[i].destination);\n            history[i].stock = wallets[msg.sender].history[i].stock;\n            history[i].amount = wallets[msg.sender].history[i].amount;\n            history[i].price = wallets[msg.sender].history[i].price;\n        }\n\n        return wallets[msg.sender].history;\n    }\n\n    function getWalletsSellsInTransit() public view returns(info.Order[] memory) {\n        uint valids = 0;\n        for (uint i = 0; i < wallets[msg.sender].SellsInTransit.size; i++) {\n            if (validOrder[wallets[msg.sender].SellsInTransit.ind[i]]) {\n                valids += 1;\n            }\n        }\n\n        info.Order[] memory ords = new info.Order[](valids);\n\n        uint it = 0;\n        for (uint i = 0; i < wallets[msg.sender].SellsInTransit.size; i++) {\n            if (validOrder[wallets[msg.sender].SellsInTransit.ind[i]]) {\n                ords[it] = orders[wallets[msg.sender].SellsInTransit.ind[i]];\n                it += 1;\n            }\n        }\n        return ords;\n    }\n\n    function getWalletsBuysInTransit() public view returns(info.Order[] memory) {\n        uint valids = 0;\n        for (uint i = 0; i < wallets[msg.sender].BuysInTransit.size; i++) {\n            if (validOrder[wallets[msg.sender].BuysInTransit.ind[i]]) {\n                valids += 1;\n            }\n        }\n\n        info.Order[] memory ords = new info.Order[](valids);\n\n        uint it = 0;\n        for (uint i = 0; i < wallets[msg.sender].BuysInTransit.size; i++) {\n            if (validOrder[wallets[msg.sender].BuysInTransit.ind[i]]) {\n                ords[it] = orders[wallets[msg.sender].BuysInTransit.ind[i]];\n                it += 1;\n            }\n        }\n        return ords;\n    }\n\n    function getSellsInOrderBook(string memory stock, uint noPrices) public view returns(info.Order[] memory) {\n        uint size = (uint)(sellPrices[stock].end - sellPrices[stock].begin);\n        uint k = (noPrices < size) ? noPrices : size;\n\n        info.Order[] memory ords = new info.Order[](k);\n\n        for (uint i = 0; i < k; i++) {\n            ords[i].price = sellPrices[stock].ind[sellPrices[stock].begin + (int)(i)];\n            ords[i].amount = sells[stock][ords[i].price].total;\n            ords[i].stock = stock;\n        }\n        return ords;\n    }\n\n    function getBuysInOrderBook(string memory stock, uint noPrices) public view returns(info.Order[] memory) {\n        uint size = (uint)(buyPrices[stock].end - buyPrices[stock].begin);\n        uint k = (noPrices < size) ? noPrices : size;\n\n        info.Order[] memory ords = new info.Order[](k);\n\n        for (uint i = 0; i < k; i++) {\n            ords[i].price = buyPrices[stock].ind[buyPrices[stock].begin + (int)(i)];\n            ords[i].amount = buys[stock][ords[i].price].total;\n            ords[i].stock = stock;\n        }\n        return ords;\n    }\n\n    function getStocks() public view returns(string[] memory) {\n        return existingStocks;\n    }\n\n    // optional: debugging purpose\n\n    function getSellPrices(string memory stock) public view returns(uint[] memory) {\n        uint size = (uint)(sellPrices[stock].end - sellPrices[stock].begin);\n        uint[] memory ret = new uint[](size);\n\n        for (uint i = 0; i < size; ++i) {\n            ret[i] = sellPrices[stock].ind[sellPrices[stock].begin + (int)(i)];\n        }\n        return ret;\n    }\n    \n}",
  "sourcePath": "/Users/costintudor/workspace/myproject/contracts/System.sol",
  "compiler": {
    "name": "solc",
    "version": "0.5.12+commit.7709ece9.Emscripten.clang"
  },
  "schemaVersion": "3.0.20",
  "updatedAt": "2020-05-07T22:55:01.602Z",
  "networkType": "quorum",
  "devdoc": {
    "methods": {}
  },
  "userdoc": {
    "methods": {}
  }
}