{
  "contractName": "Timing",
  "abi": [
    {
      "constant": false,
      "inputs": [
        {
          "internalType": "uint256",
          "name": "n",
          "type": "uint256"
        },
        {
          "internalType": "uint256",
          "name": "newValue",
          "type": "uint256"
        }
      ],
      "name": "change",
      "outputs": [],
      "payable": false,
      "stateMutability": "nonpayable",
      "type": "function"
    }
  ],
  "bytecode": "0x608060405234801561001057600080fd5b50610125806100206000396000f3fe6080604052348015600f57600080fd5b506004361060285760003560e01c80633a52c7c214602d575b600080fd5b60436004803603603f9190810190608d565b6045565b005b60008090505b8281101560755781600080838152602001908152602001600020819055508080600101915050604b565b505050565b60008135905060878160ce565b92915050565b60008060408385031215609f57600080fd5b600060ab85828601607a565b925050602060ba85828601607a565b9150509250929050565b6000819050919050565b60d58160c4565b811460df57600080fd5b5056fea365627a7a72315820d9b65b2d7928c9daab6bf953eb4f81224366b4e3f304d6fe83522accdaf3a67b6c6578706572696d656e74616cf564736f6c634300050c0040",
  "source": "pragma solidity ^0.5.0;\npragma experimental ABIEncoderV2;\n\ncontract Timing {\n    mapping (uint => uint) mp;\n    \n    function change(uint n, uint newValue) public {\n        for (uint i = 0; i < n; i++) {\n            mp[i] = newValue;\n        }\n    }\n}",
  "sourcePath": "/Users/costintudor/workspace/myproject/contracts/Timing.sol",
  "compiler": {
    "name": "solc",
    "version": "0.5.12+commit.7709ece9.Emscripten.clang"
  },
  "schemaVersion": "3.0.20",
  "updatedAt": "2020-05-07T22:55:01.664Z",
  "networkType": "quorum",
  "devdoc": {
    "methods": {}
  },
  "userdoc": {
    "methods": {}
  }
}